{
	"contracts/UserManager.sol": {
		"UserManager": {
			"abi": [
				{
					"anonymous": false,
					"inputs": [
						{
							"indexed": false,
							"internalType": "address",
							"name": "userAddress",
							"type": "address"
						},
						{
							"indexed": false,
							"internalType": "string",
							"name": "name",
							"type": "string"
						},
						{
							"indexed": false,
							"internalType": "uint256",
							"name": "location",
							"type": "uint256"
						},
						{
							"indexed": false,
							"internalType": "bool",
							"name": "isDriver",
							"type": "bool"
						}
					],
					"name": "UserSignedUp",
					"type": "event"
				},
				{
					"anonymous": false,
					"inputs": [
						{
							"indexed": false,
							"internalType": "address",
							"name": "userAddress",
							"type": "address"
						},
						{
							"indexed": false,
							"internalType": "string",
							"name": "verificationHash",
							"type": "string"
						}
					],
					"name": "UserVerified",
					"type": "event"
				},
				{
					"inputs": [
						{
							"internalType": "string",
							"name": "_name",
							"type": "string"
						},
						{
							"internalType": "uint256",
							"name": "_location",
							"type": "uint256"
						},
						{
							"internalType": "bool",
							"name": "_isDriver",
							"type": "bool"
						}
					],
					"name": "signUp",
					"outputs": [],
					"stateMutability": "nonpayable",
					"type": "function"
				},
				{
					"inputs": [
						{
							"internalType": "address",
							"name": "",
							"type": "address"
						}
					],
					"name": "users",
					"outputs": [
						{
							"internalType": "string",
							"name": "name",
							"type": "string"
						},
						{
							"internalType": "uint256",
							"name": "location",
							"type": "uint256"
						},
						{
							"internalType": "bool",
							"name": "isDriver",
							"type": "bool"
						},
						{
							"internalType": "bool",
							"name": "isVerified",
							"type": "bool"
						},
						{
							"internalType": "string",
							"name": "verificationHash",
							"type": "string"
						}
					],
					"stateMutability": "view",
					"type": "function"
				},
				{
					"inputs": [
						{
							"internalType": "address",
							"name": "_userAddress",
							"type": "address"
						},
						{
							"internalType": "string",
							"name": "_verificationHash",
							"type": "string"
						}
					],
					"name": "verifyUser",
					"outputs": [],
					"stateMutability": "nonpayable",
					"type": "function"
				}
			],
			"devdoc": {
				"kind": "dev",
				"methods": {},
				"version": 1
			},
			"evm": {
				"assembly": "    /* \"contracts/UserManager.sol\":80:1600  contract UserManager {... */\n  mstore(0x40, 0x80)\n  callvalue\n  dup1\n  iszero\n  tag_1\n  jumpi\n  0x00\n  dup1\n  revert\ntag_1:\n  pop\n  dataSize(sub_0)\n  dup1\n  dataOffset(sub_0)\n  0x00\n  codecopy\n  0x00\n  return\nstop\n\nsub_0: assembly {\n        /* \"contracts/UserManager.sol\":80:1600  contract UserManager {... */\n      mstore(0x40, 0x80)\n      callvalue\n      dup1\n      iszero\n      tag_1\n      jumpi\n      0x00\n      dup1\n      revert\n    tag_1:\n      pop\n      jumpi(tag_2, lt(calldatasize, 0x04))\n      shr(0xe0, calldataload(0x00))\n      dup1\n      0x641d7a78\n      eq\n      tag_3\n      jumpi\n      dup1\n      0x969030c1\n      eq\n      tag_4\n      jumpi\n      dup1\n      0xa87430ba\n      eq\n      tag_5\n      jumpi\n    tag_2:\n      0x00\n      dup1\n      revert\n        /* \"contracts/UserManager.sol\":1104:1597  function verifyUser(address _userAddress, string memory _verificationHash) external {... */\n    tag_3:\n      tag_6\n      0x04\n      dup1\n      calldatasize\n      sub\n      dup2\n      add\n      swap1\n      tag_7\n      swap2\n      swap1\n      tag_8\n      jump\t// in\n    tag_7:\n      tag_9\n      jump\t// in\n    tag_6:\n      stop\n        /* \"contracts/UserManager.sol\":541:1052  function signUp(string memory _name, uint256 _location, bool _isDriver) external {... */\n    tag_4:\n      tag_10\n      0x04\n      dup1\n      calldatasize\n      sub\n      dup2\n      add\n      swap1\n      tag_11\n      swap2\n      swap1\n      tag_12\n      jump\t// in\n    tag_11:\n      tag_13\n      jump\t// in\n    tag_10:\n      stop\n        /* \"contracts/UserManager.sol\":269:306  mapping(address => User) public users */\n    tag_5:\n      tag_14\n      0x04\n      dup1\n      calldatasize\n      sub\n      dup2\n      add\n      swap1\n      tag_15\n      swap2\n      swap1\n      tag_16\n      jump\t// in\n    tag_15:\n      tag_17\n      jump\t// in\n    tag_14:\n      mload(0x40)\n      tag_18\n      swap6\n      swap5\n      swap4\n      swap3\n      swap2\n      swap1\n      tag_19\n      jump\t// in\n    tag_18:\n      mload(0x40)\n      dup1\n      swap2\n      sub\n      swap1\n      return\n        /* \"contracts/UserManager.sol\":1104:1597  function verifyUser(address _userAddress, string memory _verificationHash) external {... */\n    tag_9:\n        /* \"contracts/UserManager.sol\":1221:1233  _userAddress */\n      dup2\n        /* \"contracts/UserManager.sol\":1207:1233  msg.sender == _userAddress */\n      0xffffffffffffffffffffffffffffffffffffffff\n      and\n        /* \"contracts/UserManager.sol\":1207:1217  msg.sender */\n      caller\n        /* \"contracts/UserManager.sol\":1207:1233  msg.sender == _userAddress */\n      0xffffffffffffffffffffffffffffffffffffffff\n      and\n      eq\n        /* \"contracts/UserManager.sol\":1207:1263  msg.sender == _userAddress || users[msg.sender].isDriver */\n      dup1\n      tag_21\n      jumpi\n      pop\n        /* \"contracts/UserManager.sol\":1237:1242  users */\n      0x00\n        /* \"contracts/UserManager.sol\":1237:1254  users[msg.sender] */\n      dup1\n        /* \"contracts/UserManager.sol\":1243:1253  msg.sender */\n      caller\n        /* \"contracts/UserManager.sol\":1237:1254  users[msg.sender] */\n      0xffffffffffffffffffffffffffffffffffffffff\n      and\n      0xffffffffffffffffffffffffffffffffffffffff\n      and\n      dup2\n      mstore\n      0x20\n      add\n      swap1\n      dup2\n      mstore\n      0x20\n      add\n      0x00\n      keccak256\n        /* \"contracts/UserManager.sol\":1237:1263  users[msg.sender].isDriver */\n      0x02\n      add\n      0x00\n      swap1\n      sload\n      swap1\n      0x0100\n      exp\n      swap1\n      div\n      0xff\n      and\n        /* \"contracts/UserManager.sol\":1207:1263  msg.sender == _userAddress || users[msg.sender].isDriver */\n    tag_21:\n        /* \"contracts/UserManager.sol\":1199:1306  require(msg.sender == _userAddress || users[msg.sender].isDriver, \"You are not authorized to verify users\") */\n      tag_22\n      jumpi\n      mload(0x40)\n      0x08c379a000000000000000000000000000000000000000000000000000000000\n      dup2\n      mstore\n      0x04\n      add\n      tag_23\n      swap1\n      tag_24\n      jump\t// in\n    tag_23:\n      mload(0x40)\n      dup1\n      swap2\n      sub\n      swap1\n      revert\n    tag_22:\n        /* \"contracts/UserManager.sol\":1379:1380  0 */\n      0x00\n        /* \"contracts/UserManager.sol\":1331:1336  users */\n      dup1\n        /* \"contracts/UserManager.sol\":1331:1350  users[_userAddress] */\n      0x00\n        /* \"contracts/UserManager.sol\":1337:1349  _userAddress */\n      dup5\n        /* \"contracts/UserManager.sol\":1331:1350  users[_userAddress] */\n      0xffffffffffffffffffffffffffffffffffffffff\n      and\n      0xffffffffffffffffffffffffffffffffffffffff\n      and\n      dup2\n      mstore\n      0x20\n      add\n      swap1\n      dup2\n      mstore\n      0x20\n      add\n      0x00\n      keccak256\n        /* \"contracts/UserManager.sol\":1331:1367  users[_userAddress].verificationHash */\n      0x03\n      add\n        /* \"contracts/UserManager.sol\":1325:1375  bytes(users[_userAddress].verificationHash).length */\n      dup1\n      sload\n      tag_25\n      swap1\n      tag_26\n      jump\t// in\n    tag_25:\n      swap1\n      pop\n        /* \"contracts/UserManager.sol\":1325:1380  bytes(users[_userAddress].verificationHash).length == 0 */\n      eq\n        /* \"contracts/UserManager.sol\":1317:1409  require(bytes(users[_userAddress].verificationHash).length == 0, \"User is already verified\") */\n      tag_27\n      jumpi\n      mload(0x40)\n      0x08c379a000000000000000000000000000000000000000000000000000000000\n      dup2\n      mstore\n      0x04\n      add\n      tag_28\n      swap1\n      tag_29\n      jump\t// in\n    tag_28:\n      mload(0x40)\n      dup1\n      swap2\n      sub\n      swap1\n      revert\n    tag_27:\n        /* \"contracts/UserManager.sol\":1461:1478  _verificationHash */\n      dup1\n        /* \"contracts/UserManager.sol\":1422:1427  users */\n      0x00\n        /* \"contracts/UserManager.sol\":1422:1441  users[_userAddress] */\n      dup1\n        /* \"contracts/UserManager.sol\":1428:1440  _userAddress */\n      dup5\n        /* \"contracts/UserManager.sol\":1422:1441  users[_userAddress] */\n      0xffffffffffffffffffffffffffffffffffffffff\n      and\n      0xffffffffffffffffffffffffffffffffffffffff\n      and\n      dup2\n      mstore\n      0x20\n      add\n      swap1\n      dup2\n      mstore\n      0x20\n      add\n      0x00\n      keccak256\n        /* \"contracts/UserManager.sol\":1422:1458  users[_userAddress].verificationHash */\n      0x03\n      add\n        /* \"contracts/UserManager.sol\":1422:1478  users[_userAddress].verificationHash = _verificationHash */\n      swap1\n      dup2\n      tag_30\n      swap2\n      swap1\n      tag_31\n      jump\t// in\n    tag_30:\n      pop\n        /* \"contracts/UserManager.sol\":1522:1526  true */\n      0x01\n        /* \"contracts/UserManager.sol\":1489:1494  users */\n      0x00\n        /* \"contracts/UserManager.sol\":1489:1508  users[_userAddress] */\n      dup1\n        /* \"contracts/UserManager.sol\":1495:1507  _userAddress */\n      dup5\n        /* \"contracts/UserManager.sol\":1489:1508  users[_userAddress] */\n      0xffffffffffffffffffffffffffffffffffffffff\n      and\n      0xffffffffffffffffffffffffffffffffffffffff\n      and\n      dup2\n      mstore\n      0x20\n      add\n      swap1\n      dup2\n      mstore\n      0x20\n      add\n      0x00\n      keccak256\n        /* \"contracts/UserManager.sol\":1489:1519  users[_userAddress].isVerified */\n      0x02\n      add\n      0x01\n        /* \"contracts/UserManager.sol\":1489:1526  users[_userAddress].isVerified = true */\n      0x0100\n      exp\n      dup2\n      sload\n      dup2\n      0xff\n      mul\n      not\n      and\n      swap1\n      dup4\n      iszero\n      iszero\n      mul\n      or\n      swap1\n      sstore\n      pop\n        /* \"contracts/UserManager.sol\":1544:1589  UserVerified(_userAddress, _verificationHash) */\n      0xb9a56ef3335a4b13b2aa51519b56125ab2316b50d587ad80edfce74fe9a4b7d3\n        /* \"contracts/UserManager.sol\":1557:1569  _userAddress */\n      dup3\n        /* \"contracts/UserManager.sol\":1571:1588  _verificationHash */\n      dup3\n        /* \"contracts/UserManager.sol\":1544:1589  UserVerified(_userAddress, _verificationHash) */\n      mload(0x40)\n      tag_32\n      swap3\n      swap2\n      swap1\n      tag_33\n      jump\t// in\n    tag_32:\n      mload(0x40)\n      dup1\n      swap2\n      sub\n      swap1\n      log1\n        /* \"contracts/UserManager.sol\":1104:1597  function verifyUser(address _userAddress, string memory _verificationHash) external {... */\n      pop\n      pop\n      jump\t// out\n        /* \"contracts/UserManager.sol\":541:1052  function signUp(string memory _name, uint256 _location, bool _isDriver) external {... */\n    tag_13:\n        /* \"contracts/UserManager.sol\":663:664  0 */\n      0x00\n        /* \"contracts/UserManager.sol\":647:652  _name */\n      dup4\n        /* \"contracts/UserManager.sol\":641:660  bytes(_name).length */\n      mload\n        /* \"contracts/UserManager.sol\":641:664  bytes(_name).length > 0 */\n      gt\n        /* \"contracts/UserManager.sol\":633:685  require(bytes(_name).length > 0, \"Name is required\") */\n      tag_35\n      jumpi\n      mload(0x40)\n      0x08c379a000000000000000000000000000000000000000000000000000000000\n      dup2\n      mstore\n      0x04\n      add\n      tag_36\n      swap1\n      tag_37\n      jump\t// in\n    tag_36:\n      mload(0x40)\n      dup1\n      swap2\n      sub\n      swap1\n      revert\n    tag_35:\n        /* \"contracts/UserManager.sol\":734:735  0 */\n      0x00\n        /* \"contracts/UserManager.sol\":704:709  users */\n      dup1\n        /* \"contracts/UserManager.sol\":704:721  users[msg.sender] */\n      0x00\n        /* \"contracts/UserManager.sol\":710:720  msg.sender */\n      caller\n        /* \"contracts/UserManager.sol\":704:721  users[msg.sender] */\n      0xffffffffffffffffffffffffffffffffffffffff\n      and\n      0xffffffffffffffffffffffffffffffffffffffff\n      and\n      dup2\n      mstore\n      0x20\n      add\n      swap1\n      dup2\n      mstore\n      0x20\n      add\n      0x00\n      keccak256\n        /* \"contracts/UserManager.sol\":704:730  users[msg.sender].location */\n      0x01\n      add\n      sload\n        /* \"contracts/UserManager.sol\":704:735  users[msg.sender].location == 0 */\n      eq\n        /* \"contracts/UserManager.sol\":696:762  require(users[msg.sender].location == 0, \"User already signed up\") */\n      tag_38\n      jumpi\n      mload(0x40)\n      0x08c379a000000000000000000000000000000000000000000000000000000000\n      dup2\n      mstore\n      0x04\n      add\n      tag_39\n      swap1\n      tag_40\n      jump\t// in\n    tag_39:\n      mload(0x40)\n      dup1\n      swap2\n      sub\n      swap1\n      revert\n    tag_38:\n        /* \"contracts/UserManager.sol\":795:973  User({... */\n      mload(0x40)\n      dup1\n      0xa0\n      add\n      0x40\n      mstore\n      dup1\n        /* \"contracts/UserManager.sol\":821:826  _name */\n      dup5\n        /* \"contracts/UserManager.sol\":795:973  User({... */\n      dup2\n      mstore\n      0x20\n      add\n        /* \"contracts/UserManager.sol\":851:860  _location */\n      dup4\n        /* \"contracts/UserManager.sol\":795:973  User({... */\n      dup2\n      mstore\n      0x20\n      add\n        /* \"contracts/UserManager.sol\":885:894  _isDriver */\n      dup3\n        /* \"contracts/UserManager.sol\":795:973  User({... */\n      iszero\n      iszero\n      dup2\n      mstore\n      0x20\n      add\n        /* \"contracts/UserManager.sol\":921:926  false */\n      0x00\n        /* \"contracts/UserManager.sol\":795:973  User({... */\n      iszero\n      iszero\n      dup2\n      mstore\n      0x20\n      add\n      mload(0x40)\n      dup1\n      0x20\n      add\n      0x40\n      mstore\n      dup1\n      0x00\n      dup2\n      mstore\n      pop\n      dup2\n      mstore\n      pop\n        /* \"contracts/UserManager.sol\":775:780  users */\n      0x00\n        /* \"contracts/UserManager.sol\":775:792  users[msg.sender] */\n      dup1\n        /* \"contracts/UserManager.sol\":781:791  msg.sender */\n      caller\n        /* \"contracts/UserManager.sol\":775:792  users[msg.sender] */\n      0xffffffffffffffffffffffffffffffffffffffff\n      and\n      0xffffffffffffffffffffffffffffffffffffffff\n      and\n      dup2\n      mstore\n      0x20\n      add\n      swap1\n      dup2\n      mstore\n      0x20\n      add\n      0x00\n      keccak256\n        /* \"contracts/UserManager.sol\":775:973  users[msg.sender] = User({... */\n      0x00\n      dup3\n      add\n      mload\n      dup2\n      0x00\n      add\n      swap1\n      dup2\n      tag_41\n      swap2\n      swap1\n      tag_31\n      jump\t// in\n    tag_41:\n      pop\n      0x20\n      dup3\n      add\n      mload\n      dup2\n      0x01\n      add\n      sstore\n      0x40\n      dup3\n      add\n      mload\n      dup2\n      0x02\n      add\n      exp(0x0100, 0x00)\n      dup2\n      sload\n      dup2\n      0xff\n      mul\n      not\n      and\n      swap1\n      dup4\n      iszero\n      iszero\n      mul\n      or\n      swap1\n      sstore\n      pop\n      0x60\n      dup3\n      add\n      mload\n      dup2\n      0x02\n      add\n      exp(0x0100, 0x01)\n      dup2\n      sload\n      dup2\n      0xff\n      mul\n      not\n      and\n      swap1\n      dup4\n      iszero\n      iszero\n      mul\n      or\n      swap1\n      sstore\n      pop\n      0x80\n      dup3\n      add\n      mload\n      dup2\n      0x03\n      add\n      swap1\n      dup2\n      tag_42\n      swap2\n      swap1\n      tag_31\n      jump\t// in\n    tag_42:\n      pop\n      swap1\n      pop\n      pop\n        /* \"contracts/UserManager.sol\":991:1044  UserSignedUp(msg.sender, _name, _location, _isDriver) */\n      0x2bc44769c662c8389c85d654a18c15abfe91d1bf7e0c0f1e57ad869e2ea7be9a\n        /* \"contracts/UserManager.sol\":1004:1014  msg.sender */\n      caller\n        /* \"contracts/UserManager.sol\":1016:1021  _name */\n      dup5\n        /* \"contracts/UserManager.sol\":1023:1032  _location */\n      dup5\n        /* \"contracts/UserManager.sol\":1034:1043  _isDriver */\n      dup5\n        /* \"contracts/UserManager.sol\":991:1044  UserSignedUp(msg.sender, _name, _location, _isDriver) */\n      mload(0x40)\n      tag_43\n      swap5\n      swap4\n      swap3\n      swap2\n      swap1\n      tag_44\n      jump\t// in\n    tag_43:\n      mload(0x40)\n      dup1\n      swap2\n      sub\n      swap1\n      log1\n        /* \"contracts/UserManager.sol\":541:1052  function signUp(string memory _name, uint256 _location, bool _isDriver) external {... */\n      pop\n      pop\n      pop\n      jump\t// out\n        /* \"contracts/UserManager.sol\":269:306  mapping(address => User) public users */\n    tag_17:\n      mstore(0x20, 0x00)\n      dup1\n      0x00\n      mstore\n      keccak256(0x00, 0x40)\n      0x00\n      swap2\n      pop\n      swap1\n      pop\n      dup1\n      0x00\n      add\n      dup1\n      sload\n      tag_45\n      swap1\n      tag_26\n      jump\t// in\n    tag_45:\n      dup1\n      0x1f\n      add\n      0x20\n      dup1\n      swap2\n      div\n      mul\n      0x20\n      add\n      mload(0x40)\n      swap1\n      dup2\n      add\n      0x40\n      mstore\n      dup1\n      swap3\n      swap2\n      swap1\n      dup2\n      dup2\n      mstore\n      0x20\n      add\n      dup3\n      dup1\n      sload\n      tag_46\n      swap1\n      tag_26\n      jump\t// in\n    tag_46:\n      dup1\n      iszero\n      tag_47\n      jumpi\n      dup1\n      0x1f\n      lt\n      tag_48\n      jumpi\n      0x0100\n      dup1\n      dup4\n      sload\n      div\n      mul\n      dup4\n      mstore\n      swap2\n      0x20\n      add\n      swap2\n      jump(tag_47)\n    tag_48:\n      dup3\n      add\n      swap2\n      swap1\n      0x00\n      mstore\n      keccak256(0x00, 0x20)\n      swap1\n    tag_49:\n      dup2\n      sload\n      dup2\n      mstore\n      swap1\n      0x01\n      add\n      swap1\n      0x20\n      add\n      dup1\n      dup4\n      gt\n      tag_49\n      jumpi\n      dup3\n      swap1\n      sub\n      0x1f\n      and\n      dup3\n      add\n      swap2\n    tag_47:\n      pop\n      pop\n      pop\n      pop\n      pop\n      swap1\n      dup1\n      0x01\n      add\n      sload\n      swap1\n      dup1\n      0x02\n      add\n      0x00\n      swap1\n      sload\n      swap1\n      0x0100\n      exp\n      swap1\n      div\n      0xff\n      and\n      swap1\n      dup1\n      0x02\n      add\n      0x01\n      swap1\n      sload\n      swap1\n      0x0100\n      exp\n      swap1\n      div\n      0xff\n      and\n      swap1\n      dup1\n      0x03\n      add\n      dup1\n      sload\n      tag_50\n      swap1\n      tag_26\n      jump\t// in\n    tag_50:\n      dup1\n      0x1f\n      add\n      0x20\n      dup1\n      swap2\n      div\n      mul\n      0x20\n      add\n      mload(0x40)\n      swap1\n      dup2\n      add\n      0x40\n      mstore\n      dup1\n      swap3\n      swap2\n      swap1\n      dup2\n      dup2\n      mstore\n      0x20\n      add\n      dup3\n      dup1\n      sload\n      tag_51\n      swap1\n      tag_26\n      jump\t// in\n    tag_51:\n      dup1\n      iszero\n      tag_52\n      jumpi\n      dup1\n      0x1f\n      lt\n      tag_53\n      jumpi\n      0x0100\n      dup1\n      dup4\n      sload\n      div\n      mul\n      dup4\n      mstore\n      swap2\n      0x20\n      add\n      swap2\n      jump(tag_52)\n    tag_53:\n      dup3\n      add\n      swap2\n      swap1\n      0x00\n      mstore\n      keccak256(0x00, 0x20)\n      swap1\n    tag_54:\n      dup2\n      sload\n      dup2\n      mstore\n      swap1\n      0x01\n      add\n      swap1\n      0x20\n      add\n      dup1\n      dup4\n      gt\n      tag_54\n      jumpi\n      dup3\n      swap1\n      sub\n      0x1f\n      and\n      dup3\n      add\n      swap2\n    tag_52:\n      pop\n      pop\n      pop\n      pop\n      pop\n      swap1\n      pop\n      dup6\n      jump\t// out\n        /* \"#utility.yul\":7:82   */\n    tag_55:\n        /* \"#utility.yul\":40:46   */\n      0x00\n        /* \"#utility.yul\":73:75   */\n      0x40\n        /* \"#utility.yul\":67:76   */\n      mload\n        /* \"#utility.yul\":57:76   */\n      swap1\n      pop\n        /* \"#utility.yul\":7:82   */\n      swap1\n      jump\t// out\n        /* \"#utility.yul\":88:205   */\n    tag_56:\n        /* \"#utility.yul\":197:198   */\n      0x00\n        /* \"#utility.yul\":194:195   */\n      dup1\n        /* \"#utility.yul\":187:199   */\n      revert\n        /* \"#utility.yul\":211:328   */\n    tag_57:\n        /* \"#utility.yul\":320:321   */\n      0x00\n        /* \"#utility.yul\":317:318   */\n      dup1\n        /* \"#utility.yul\":310:322   */\n      revert\n        /* \"#utility.yul\":334:460   */\n    tag_58:\n        /* \"#utility.yul\":371:378   */\n      0x00\n        /* \"#utility.yul\":411:453   */\n      0xffffffffffffffffffffffffffffffffffffffff\n        /* \"#utility.yul\":404:409   */\n      dup3\n        /* \"#utility.yul\":400:454   */\n      and\n        /* \"#utility.yul\":389:454   */\n      swap1\n      pop\n        /* \"#utility.yul\":334:460   */\n      swap2\n      swap1\n      pop\n      jump\t// out\n        /* \"#utility.yul\":466:562   */\n    tag_59:\n        /* \"#utility.yul\":503:510   */\n      0x00\n        /* \"#utility.yul\":532:556   */\n      tag_115\n        /* \"#utility.yul\":550:555   */\n      dup3\n        /* \"#utility.yul\":532:556   */\n      tag_58\n      jump\t// in\n    tag_115:\n        /* \"#utility.yul\":521:556   */\n      swap1\n      pop\n        /* \"#utility.yul\":466:562   */\n      swap2\n      swap1\n      pop\n      jump\t// out\n        /* \"#utility.yul\":568:690   */\n    tag_60:\n        /* \"#utility.yul\":641:665   */\n      tag_117\n        /* \"#utility.yul\":659:664   */\n      dup2\n        /* \"#utility.yul\":641:665   */\n      tag_59\n      jump\t// in\n    tag_117:\n        /* \"#utility.yul\":634:639   */\n      dup2\n        /* \"#utility.yul\":631:666   */\n      eq\n        /* \"#utility.yul\":621:684   */\n      tag_118\n      jumpi\n        /* \"#utility.yul\":680:681   */\n      0x00\n        /* \"#utility.yul\":677:678   */\n      dup1\n        /* \"#utility.yul\":670:682   */\n      revert\n        /* \"#utility.yul\":621:684   */\n    tag_118:\n        /* \"#utility.yul\":568:690   */\n      pop\n      jump\t// out\n        /* \"#utility.yul\":696:835   */\n    tag_61:\n        /* \"#utility.yul\":742:747   */\n      0x00\n        /* \"#utility.yul\":780:786   */\n      dup2\n        /* \"#utility.yul\":767:787   */\n      calldataload\n        /* \"#utility.yul\":758:787   */\n      swap1\n      pop\n        /* \"#utility.yul\":796:829   */\n      tag_120\n        /* \"#utility.yul\":823:828   */\n      dup2\n        /* \"#utility.yul\":796:829   */\n      tag_60\n      jump\t// in\n    tag_120:\n        /* \"#utility.yul\":696:835   */\n      swap3\n      swap2\n      pop\n      pop\n      jump\t// out\n        /* \"#utility.yul\":841:958   */\n    tag_62:\n        /* \"#utility.yul\":950:951   */\n      0x00\n        /* \"#utility.yul\":947:948   */\n      dup1\n        /* \"#utility.yul\":940:952   */\n      revert\n        /* \"#utility.yul\":964:1081   */\n    tag_63:\n        /* \"#utility.yul\":1073:1074   */\n      0x00\n        /* \"#utility.yul\":1070:1071   */\n      dup1\n        /* \"#utility.yul\":1063:1075   */\n      revert\n        /* \"#utility.yul\":1087:1189   */\n    tag_64:\n        /* \"#utility.yul\":1128:1134   */\n      0x00\n        /* \"#utility.yul\":1179:1181   */\n      0x1f\n        /* \"#utility.yul\":1175:1182   */\n      not\n        /* \"#utility.yul\":1170:1172   */\n      0x1f\n        /* \"#utility.yul\":1163:1168   */\n      dup4\n        /* \"#utility.yul\":1159:1173   */\n      add\n        /* \"#utility.yul\":1155:1183   */\n      and\n        /* \"#utility.yul\":1145:1183   */\n      swap1\n      pop\n        /* \"#utility.yul\":1087:1189   */\n      swap2\n      swap1\n      pop\n      jump\t// out\n        /* \"#utility.yul\":1195:1375   */\n    tag_65:\n        /* \"#utility.yul\":1243:1320   */\n      0x4e487b7100000000000000000000000000000000000000000000000000000000\n        /* \"#utility.yul\":1240:1241   */\n      0x00\n        /* \"#utility.yul\":1233:1321   */\n      mstore\n        /* \"#utility.yul\":1340:1344   */\n      0x41\n        /* \"#utility.yul\":1337:1338   */\n      0x04\n        /* \"#utility.yul\":1330:1345   */\n      mstore\n        /* \"#utility.yul\":1364:1368   */\n      0x24\n        /* \"#utility.yul\":1361:1362   */\n      0x00\n        /* \"#utility.yul\":1354:1369   */\n      revert\n        /* \"#utility.yul\":1381:1662   */\n    tag_66:\n        /* \"#utility.yul\":1464:1491   */\n      tag_126\n        /* \"#utility.yul\":1486:1490   */\n      dup3\n        /* \"#utility.yul\":1464:1491   */\n      tag_64\n      jump\t// in\n    tag_126:\n        /* \"#utility.yul\":1456:1462   */\n      dup2\n        /* \"#utility.yul\":1452:1492   */\n      add\n        /* \"#utility.yul\":1594:1600   */\n      dup2\n        /* \"#utility.yul\":1582:1592   */\n      dup2\n        /* \"#utility.yul\":1579:1601   */\n      lt\n        /* \"#utility.yul\":1558:1576   */\n      0xffffffffffffffff\n        /* \"#utility.yul\":1546:1556   */\n      dup3\n        /* \"#utility.yul\":1543:1577   */\n      gt\n        /* \"#utility.yul\":1540:1602   */\n      or\n        /* \"#utility.yul\":1537:1625   */\n      iszero\n      tag_127\n      jumpi\n        /* \"#utility.yul\":1605:1623   */\n      tag_128\n      tag_65\n      jump\t// in\n    tag_128:\n        /* \"#utility.yul\":1537:1625   */\n    tag_127:\n        /* \"#utility.yul\":1645:1655   */\n      dup1\n        /* \"#utility.yul\":1641:1643   */\n      0x40\n        /* \"#utility.yul\":1634:1656   */\n      mstore\n        /* \"#utility.yul\":1424:1662   */\n      pop\n        /* \"#utility.yul\":1381:1662   */\n      pop\n      pop\n      jump\t// out\n        /* \"#utility.yul\":1668:1797   */\n    tag_67:\n        /* \"#utility.yul\":1702:1708   */\n      0x00\n        /* \"#utility.yul\":1729:1749   */\n      tag_130\n      tag_55\n      jump\t// in\n    tag_130:\n        /* \"#utility.yul\":1719:1749   */\n      swap1\n      pop\n        /* \"#utility.yul\":1758:1791   */\n      tag_131\n        /* \"#utility.yul\":1786:1790   */\n      dup3\n        /* \"#utility.yul\":1778:1784   */\n      dup3\n        /* \"#utility.yul\":1758:1791   */\n      tag_66\n      jump\t// in\n    tag_131:\n        /* \"#utility.yul\":1668:1797   */\n      swap2\n      swap1\n      pop\n      jump\t// out\n        /* \"#utility.yul\":1803:2111   */\n    tag_68:\n        /* \"#utility.yul\":1865:1869   */\n      0x00\n        /* \"#utility.yul\":1955:1973   */\n      0xffffffffffffffff\n        /* \"#utility.yul\":1947:1953   */\n      dup3\n        /* \"#utility.yul\":1944:1974   */\n      gt\n        /* \"#utility.yul\":1941:1997   */\n      iszero\n      tag_133\n      jumpi\n        /* \"#utility.yul\":1977:1995   */\n      tag_134\n      tag_65\n      jump\t// in\n    tag_134:\n        /* \"#utility.yul\":1941:1997   */\n    tag_133:\n        /* \"#utility.yul\":2015:2044   */\n      tag_135\n        /* \"#utility.yul\":2037:2043   */\n      dup3\n        /* \"#utility.yul\":2015:2044   */\n      tag_64\n      jump\t// in\n    tag_135:\n        /* \"#utility.yul\":2007:2044   */\n      swap1\n      pop\n        /* \"#utility.yul\":2099:2103   */\n      0x20\n        /* \"#utility.yul\":2093:2097   */\n      dup2\n        /* \"#utility.yul\":2089:2104   */\n      add\n        /* \"#utility.yul\":2081:2104   */\n      swap1\n      pop\n        /* \"#utility.yul\":1803:2111   */\n      swap2\n      swap1\n      pop\n      jump\t// out\n        /* \"#utility.yul\":2117:2263   */\n    tag_69:\n        /* \"#utility.yul\":2214:2220   */\n      dup3\n        /* \"#utility.yul\":2209:2212   */\n      dup2\n        /* \"#utility.yul\":2204:2207   */\n      dup4\n        /* \"#utility.yul\":2191:2221   */\n      calldatacopy\n        /* \"#utility.yul\":2255:2256   */\n      0x00\n        /* \"#utility.yul\":2246:2252   */\n      dup4\n        /* \"#utility.yul\":2241:2244   */\n      dup4\n        /* \"#utility.yul\":2237:2253   */\n      add\n        /* \"#utility.yul\":2230:2257   */\n      mstore\n        /* \"#utility.yul\":2117:2263   */\n      pop\n      pop\n      pop\n      jump\t// out\n        /* \"#utility.yul\":2269:2694   */\n    tag_70:\n        /* \"#utility.yul\":2347:2352   */\n      0x00\n        /* \"#utility.yul\":2372:2438   */\n      tag_138\n        /* \"#utility.yul\":2388:2437   */\n      tag_139\n        /* \"#utility.yul\":2430:2436   */\n      dup5\n        /* \"#utility.yul\":2388:2437   */\n      tag_68\n      jump\t// in\n    tag_139:\n        /* \"#utility.yul\":2372:2438   */\n      tag_67\n      jump\t// in\n    tag_138:\n        /* \"#utility.yul\":2363:2438   */\n      swap1\n      pop\n        /* \"#utility.yul\":2461:2467   */\n      dup3\n        /* \"#utility.yul\":2454:2459   */\n      dup2\n        /* \"#utility.yul\":2447:2468   */\n      mstore\n        /* \"#utility.yul\":2499:2503   */\n      0x20\n        /* \"#utility.yul\":2492:2497   */\n      dup2\n        /* \"#utility.yul\":2488:2504   */\n      add\n        /* \"#utility.yul\":2537:2540   */\n      dup5\n        /* \"#utility.yul\":2528:2534   */\n      dup5\n        /* \"#utility.yul\":2523:2526   */\n      dup5\n        /* \"#utility.yul\":2519:2535   */\n      add\n        /* \"#utility.yul\":2516:2541   */\n      gt\n        /* \"#utility.yul\":2513:2625   */\n      iszero\n      tag_140\n      jumpi\n        /* \"#utility.yul\":2544:2623   */\n      tag_141\n      tag_63\n      jump\t// in\n    tag_141:\n        /* \"#utility.yul\":2513:2625   */\n    tag_140:\n        /* \"#utility.yul\":2634:2688   */\n      tag_142\n        /* \"#utility.yul\":2681:2687   */\n      dup5\n        /* \"#utility.yul\":2676:2679   */\n      dup3\n        /* \"#utility.yul\":2671:2674   */\n      dup6\n        /* \"#utility.yul\":2634:2688   */\n      tag_69\n      jump\t// in\n    tag_142:\n        /* \"#utility.yul\":2353:2694   */\n      pop\n        /* \"#utility.yul\":2269:2694   */\n      swap4\n      swap3\n      pop\n      pop\n      pop\n      jump\t// out\n        /* \"#utility.yul\":2714:3054   */\n    tag_71:\n        /* \"#utility.yul\":2770:2775   */\n      0x00\n        /* \"#utility.yul\":2819:2822   */\n      dup3\n        /* \"#utility.yul\":2812:2816   */\n      0x1f\n        /* \"#utility.yul\":2804:2810   */\n      dup4\n        /* \"#utility.yul\":2800:2817   */\n      add\n        /* \"#utility.yul\":2796:2823   */\n      slt\n        /* \"#utility.yul\":2786:2908   */\n      tag_144\n      jumpi\n        /* \"#utility.yul\":2827:2906   */\n      tag_145\n      tag_62\n      jump\t// in\n    tag_145:\n        /* \"#utility.yul\":2786:2908   */\n    tag_144:\n        /* \"#utility.yul\":2944:2950   */\n      dup2\n        /* \"#utility.yul\":2931:2951   */\n      calldataload\n        /* \"#utility.yul\":2969:3048   */\n      tag_146\n        /* \"#utility.yul\":3044:3047   */\n      dup5\n        /* \"#utility.yul\":3036:3042   */\n      dup3\n        /* \"#utility.yul\":3029:3033   */\n      0x20\n        /* \"#utility.yul\":3021:3027   */\n      dup7\n        /* \"#utility.yul\":3017:3034   */\n      add\n        /* \"#utility.yul\":2969:3048   */\n      tag_70\n      jump\t// in\n    tag_146:\n        /* \"#utility.yul\":2960:3048   */\n      swap2\n      pop\n        /* \"#utility.yul\":2776:3054   */\n      pop\n        /* \"#utility.yul\":2714:3054   */\n      swap3\n      swap2\n      pop\n      pop\n      jump\t// out\n        /* \"#utility.yul\":3060:3714   */\n    tag_8:\n        /* \"#utility.yul\":3138:3144   */\n      0x00\n        /* \"#utility.yul\":3146:3152   */\n      dup1\n        /* \"#utility.yul\":3195:3197   */\n      0x40\n        /* \"#utility.yul\":3183:3192   */\n      dup4\n        /* \"#utility.yul\":3174:3181   */\n      dup6\n        /* \"#utility.yul\":3170:3193   */\n      sub\n        /* \"#utility.yul\":3166:3198   */\n      slt\n        /* \"#utility.yul\":3163:3282   */\n      iszero\n      tag_148\n      jumpi\n        /* \"#utility.yul\":3201:3280   */\n      tag_149\n      tag_56\n      jump\t// in\n    tag_149:\n        /* \"#utility.yul\":3163:3282   */\n    tag_148:\n        /* \"#utility.yul\":3321:3322   */\n      0x00\n        /* \"#utility.yul\":3346:3399   */\n      tag_150\n        /* \"#utility.yul\":3391:3398   */\n      dup6\n        /* \"#utility.yul\":3382:3388   */\n      dup3\n        /* \"#utility.yul\":3371:3380   */\n      dup7\n        /* \"#utility.yul\":3367:3389   */\n      add\n        /* \"#utility.yul\":3346:3399   */\n      tag_61\n      jump\t// in\n    tag_150:\n        /* \"#utility.yul\":3336:3399   */\n      swap3\n      pop\n        /* \"#utility.yul\":3292:3409   */\n      pop\n        /* \"#utility.yul\":3476:3478   */\n      0x20\n        /* \"#utility.yul\":3465:3474   */\n      dup4\n        /* \"#utility.yul\":3461:3479   */\n      add\n        /* \"#utility.yul\":3448:3480   */\n      calldataload\n        /* \"#utility.yul\":3507:3525   */\n      0xffffffffffffffff\n        /* \"#utility.yul\":3499:3505   */\n      dup2\n        /* \"#utility.yul\":3496:3526   */\n      gt\n        /* \"#utility.yul\":3493:3610   */\n      iszero\n      tag_151\n      jumpi\n        /* \"#utility.yul\":3529:3608   */\n      tag_152\n      tag_57\n      jump\t// in\n    tag_152:\n        /* \"#utility.yul\":3493:3610   */\n    tag_151:\n        /* \"#utility.yul\":3634:3697   */\n      tag_153\n        /* \"#utility.yul\":3689:3696   */\n      dup6\n        /* \"#utility.yul\":3680:3686   */\n      dup3\n        /* \"#utility.yul\":3669:3678   */\n      dup7\n        /* \"#utility.yul\":3665:3687   */\n      add\n        /* \"#utility.yul\":3634:3697   */\n      tag_71\n      jump\t// in\n    tag_153:\n        /* \"#utility.yul\":3624:3697   */\n      swap2\n      pop\n        /* \"#utility.yul\":3419:3707   */\n      pop\n        /* \"#utility.yul\":3060:3714   */\n      swap3\n      pop\n      swap3\n      swap1\n      pop\n      jump\t// out\n        /* \"#utility.yul\":3720:3797   */\n    tag_72:\n        /* \"#utility.yul\":3757:3764   */\n      0x00\n        /* \"#utility.yul\":3786:3791   */\n      dup2\n        /* \"#utility.yul\":3775:3791   */\n      swap1\n      pop\n        /* \"#utility.yul\":3720:3797   */\n      swap2\n      swap1\n      pop\n      jump\t// out\n        /* \"#utility.yul\":3803:3925   */\n    tag_73:\n        /* \"#utility.yul\":3876:3900   */\n      tag_156\n        /* \"#utility.yul\":3894:3899   */\n      dup2\n        /* \"#utility.yul\":3876:3900   */\n      tag_72\n      jump\t// in\n    tag_156:\n        /* \"#utility.yul\":3869:3874   */\n      dup2\n        /* \"#utility.yul\":3866:3901   */\n      eq\n        /* \"#utility.yul\":3856:3919   */\n      tag_157\n      jumpi\n        /* \"#utility.yul\":3915:3916   */\n      0x00\n        /* \"#utility.yul\":3912:3913   */\n      dup1\n        /* \"#utility.yul\":3905:3917   */\n      revert\n        /* \"#utility.yul\":3856:3919   */\n    tag_157:\n        /* \"#utility.yul\":3803:3925   */\n      pop\n      jump\t// out\n        /* \"#utility.yul\":3931:4070   */\n    tag_74:\n        /* \"#utility.yul\":3977:3982   */\n      0x00\n        /* \"#utility.yul\":4015:4021   */\n      dup2\n        /* \"#utility.yul\":4002:4022   */\n      calldataload\n        /* \"#utility.yul\":3993:4022   */\n      swap1\n      pop\n        /* \"#utility.yul\":4031:4064   */\n      tag_159\n        /* \"#utility.yul\":4058:4063   */\n      dup2\n        /* \"#utility.yul\":4031:4064   */\n      tag_73\n      jump\t// in\n    tag_159:\n        /* \"#utility.yul\":3931:4070   */\n      swap3\n      swap2\n      pop\n      pop\n      jump\t// out\n        /* \"#utility.yul\":4076:4166   */\n    tag_75:\n        /* \"#utility.yul\":4110:4117   */\n      0x00\n        /* \"#utility.yul\":4153:4158   */\n      dup2\n        /* \"#utility.yul\":4146:4159   */\n      iszero\n        /* \"#utility.yul\":4139:4160   */\n      iszero\n        /* \"#utility.yul\":4128:4160   */\n      swap1\n      pop\n        /* \"#utility.yul\":4076:4166   */\n      swap2\n      swap1\n      pop\n      jump\t// out\n        /* \"#utility.yul\":4172:4288   */\n    tag_76:\n        /* \"#utility.yul\":4242:4263   */\n      tag_162\n        /* \"#utility.yul\":4257:4262   */\n      dup2\n        /* \"#utility.yul\":4242:4263   */\n      tag_75\n      jump\t// in\n    tag_162:\n        /* \"#utility.yul\":4235:4240   */\n      dup2\n        /* \"#utility.yul\":4232:4264   */\n      eq\n        /* \"#utility.yul\":4222:4282   */\n      tag_163\n      jumpi\n        /* \"#utility.yul\":4278:4279   */\n      0x00\n        /* \"#utility.yul\":4275:4276   */\n      dup1\n        /* \"#utility.yul\":4268:4280   */\n      revert\n        /* \"#utility.yul\":4222:4282   */\n    tag_163:\n        /* \"#utility.yul\":4172:4288   */\n      pop\n      jump\t// out\n        /* \"#utility.yul\":4294:4427   */\n    tag_77:\n        /* \"#utility.yul\":4337:4342   */\n      0x00\n        /* \"#utility.yul\":4375:4381   */\n      dup2\n        /* \"#utility.yul\":4362:4382   */\n      calldataload\n        /* \"#utility.yul\":4353:4382   */\n      swap1\n      pop\n        /* \"#utility.yul\":4391:4421   */\n      tag_165\n        /* \"#utility.yul\":4415:4420   */\n      dup2\n        /* \"#utility.yul\":4391:4421   */\n      tag_76\n      jump\t// in\n    tag_165:\n        /* \"#utility.yul\":4294:4427   */\n      swap3\n      swap2\n      pop\n      pop\n      jump\t// out\n        /* \"#utility.yul\":4433:5226   */\n    tag_12:\n        /* \"#utility.yul\":4517:4523   */\n      0x00\n        /* \"#utility.yul\":4525:4531   */\n      dup1\n        /* \"#utility.yul\":4533:4539   */\n      0x00\n        /* \"#utility.yul\":4582:4584   */\n      0x60\n        /* \"#utility.yul\":4570:4579   */\n      dup5\n        /* \"#utility.yul\":4561:4568   */\n      dup7\n        /* \"#utility.yul\":4557:4580   */\n      sub\n        /* \"#utility.yul\":4553:4585   */\n      slt\n        /* \"#utility.yul\":4550:4669   */\n      iszero\n      tag_167\n      jumpi\n        /* \"#utility.yul\":4588:4667   */\n      tag_168\n      tag_56\n      jump\t// in\n    tag_168:\n        /* \"#utility.yul\":4550:4669   */\n    tag_167:\n        /* \"#utility.yul\":4736:4737   */\n      0x00\n        /* \"#utility.yul\":4725:4734   */\n      dup5\n        /* \"#utility.yul\":4721:4738   */\n      add\n        /* \"#utility.yul\":4708:4739   */\n      calldataload\n        /* \"#utility.yul\":4766:4784   */\n      0xffffffffffffffff\n        /* \"#utility.yul\":4758:4764   */\n      dup2\n        /* \"#utility.yul\":4755:4785   */\n      gt\n        /* \"#utility.yul\":4752:4869   */\n      iszero\n      tag_169\n      jumpi\n        /* \"#utility.yul\":4788:4867   */\n      tag_170\n      tag_57\n      jump\t// in\n    tag_170:\n        /* \"#utility.yul\":4752:4869   */\n    tag_169:\n        /* \"#utility.yul\":4893:4956   */\n      tag_171\n        /* \"#utility.yul\":4948:4955   */\n      dup7\n        /* \"#utility.yul\":4939:4945   */\n      dup3\n        /* \"#utility.yul\":4928:4937   */\n      dup8\n        /* \"#utility.yul\":4924:4946   */\n      add\n        /* \"#utility.yul\":4893:4956   */\n      tag_71\n      jump\t// in\n    tag_171:\n        /* \"#utility.yul\":4883:4956   */\n      swap4\n      pop\n        /* \"#utility.yul\":4679:4966   */\n      pop\n        /* \"#utility.yul\":5005:5007   */\n      0x20\n        /* \"#utility.yul\":5031:5084   */\n      tag_172\n        /* \"#utility.yul\":5076:5083   */\n      dup7\n        /* \"#utility.yul\":5067:5073   */\n      dup3\n        /* \"#utility.yul\":5056:5065   */\n      dup8\n        /* \"#utility.yul\":5052:5074   */\n      add\n        /* \"#utility.yul\":5031:5084   */\n      tag_74\n      jump\t// in\n    tag_172:\n        /* \"#utility.yul\":5021:5084   */\n      swap3\n      pop\n        /* \"#utility.yul\":4976:5094   */\n      pop\n        /* \"#utility.yul\":5133:5135   */\n      0x40\n        /* \"#utility.yul\":5159:5209   */\n      tag_173\n        /* \"#utility.yul\":5201:5208   */\n      dup7\n        /* \"#utility.yul\":5192:5198   */\n      dup3\n        /* \"#utility.yul\":5181:5190   */\n      dup8\n        /* \"#utility.yul\":5177:5199   */\n      add\n        /* \"#utility.yul\":5159:5209   */\n      tag_77\n      jump\t// in\n    tag_173:\n        /* \"#utility.yul\":5149:5209   */\n      swap2\n      pop\n        /* \"#utility.yul\":5104:5219   */\n      pop\n        /* \"#utility.yul\":4433:5226   */\n      swap3\n      pop\n      swap3\n      pop\n      swap3\n      jump\t// out\n        /* \"#utility.yul\":5232:5561   */\n    tag_16:\n        /* \"#utility.yul\":5291:5297   */\n      0x00\n        /* \"#utility.yul\":5340:5342   */\n      0x20\n        /* \"#utility.yul\":5328:5337   */\n      dup3\n        /* \"#utility.yul\":5319:5326   */\n      dup5\n        /* \"#utility.yul\":5315:5338   */\n      sub\n        /* \"#utility.yul\":5311:5343   */\n      slt\n        /* \"#utility.yul\":5308:5427   */\n      iszero\n      tag_175\n      jumpi\n        /* \"#utility.yul\":5346:5425   */\n      tag_176\n      tag_56\n      jump\t// in\n    tag_176:\n        /* \"#utility.yul\":5308:5427   */\n    tag_175:\n        /* \"#utility.yul\":5466:5467   */\n      0x00\n        /* \"#utility.yul\":5491:5544   */\n      tag_177\n        /* \"#utility.yul\":5536:5543   */\n      dup5\n        /* \"#utility.yul\":5527:5533   */\n      dup3\n        /* \"#utility.yul\":5516:5525   */\n      dup6\n        /* \"#utility.yul\":5512:5534   */\n      add\n        /* \"#utility.yul\":5491:5544   */\n      tag_61\n      jump\t// in\n    tag_177:\n        /* \"#utility.yul\":5481:5544   */\n      swap2\n      pop\n        /* \"#utility.yul\":5437:5554   */\n      pop\n        /* \"#utility.yul\":5232:5561   */\n      swap3\n      swap2\n      pop\n      pop\n      jump\t// out\n        /* \"#utility.yul\":5567:5666   */\n    tag_78:\n        /* \"#utility.yul\":5619:5625   */\n      0x00\n        /* \"#utility.yul\":5653:5658   */\n      dup2\n        /* \"#utility.yul\":5647:5659   */\n      mload\n        /* \"#utility.yul\":5637:5659   */\n      swap1\n      pop\n        /* \"#utility.yul\":5567:5666   */\n      swap2\n      swap1\n      pop\n      jump\t// out\n        /* \"#utility.yul\":5672:5841   */\n    tag_79:\n        /* \"#utility.yul\":5756:5767   */\n      0x00\n        /* \"#utility.yul\":5790:5796   */\n      dup3\n        /* \"#utility.yul\":5785:5788   */\n      dup3\n        /* \"#utility.yul\":5778:5797   */\n      mstore\n        /* \"#utility.yul\":5830:5834   */\n      0x20\n        /* \"#utility.yul\":5825:5828   */\n      dup3\n        /* \"#utility.yul\":5821:5835   */\n      add\n        /* \"#utility.yul\":5806:5835   */\n      swap1\n      pop\n        /* \"#utility.yul\":5672:5841   */\n      swap3\n      swap2\n      pop\n      pop\n      jump\t// out\n        /* \"#utility.yul\":5847:6093   */\n    tag_80:\n        /* \"#utility.yul\":5928:5929   */\n      0x00\n        /* \"#utility.yul\":5938:6051   */\n    tag_181:\n        /* \"#utility.yul\":5952:5958   */\n      dup4\n        /* \"#utility.yul\":5949:5950   */\n      dup2\n        /* \"#utility.yul\":5946:5959   */\n      lt\n        /* \"#utility.yul\":5938:6051   */\n      iszero\n      tag_183\n      jumpi\n        /* \"#utility.yul\":6037:6038   */\n      dup1\n        /* \"#utility.yul\":6032:6035   */\n      dup3\n        /* \"#utility.yul\":6028:6039   */\n      add\n        /* \"#utility.yul\":6022:6040   */\n      mload\n        /* \"#utility.yul\":6018:6019   */\n      dup2\n        /* \"#utility.yul\":6013:6016   */\n      dup5\n        /* \"#utility.yul\":6009:6020   */\n      add\n        /* \"#utility.yul\":6002:6041   */\n      mstore\n        /* \"#utility.yul\":5974:5976   */\n      0x20\n        /* \"#utility.yul\":5971:5972   */\n      dup2\n        /* \"#utility.yul\":5967:5977   */\n      add\n        /* \"#utility.yul\":5962:5977   */\n      swap1\n      pop\n        /* \"#utility.yul\":5938:6051   */\n      jump(tag_181)\n    tag_183:\n        /* \"#utility.yul\":6085:6086   */\n      0x00\n        /* \"#utility.yul\":6076:6082   */\n      dup5\n        /* \"#utility.yul\":6071:6074   */\n      dup5\n        /* \"#utility.yul\":6067:6083   */\n      add\n        /* \"#utility.yul\":6060:6087   */\n      mstore\n        /* \"#utility.yul\":5909:6093   */\n      pop\n        /* \"#utility.yul\":5847:6093   */\n      pop\n      pop\n      pop\n      jump\t// out\n        /* \"#utility.yul\":6099:6476   */\n    tag_81:\n        /* \"#utility.yul\":6187:6190   */\n      0x00\n        /* \"#utility.yul\":6215:6254   */\n      tag_185\n        /* \"#utility.yul\":6248:6253   */\n      dup3\n        /* \"#utility.yul\":6215:6254   */\n      tag_78\n      jump\t// in\n    tag_185:\n        /* \"#utility.yul\":6270:6341   */\n      tag_186\n        /* \"#utility.yul\":6334:6340   */\n      dup2\n        /* \"#utility.yul\":6329:6332   */\n      dup6\n        /* \"#utility.yul\":6270:6341   */\n      tag_79\n      jump\t// in\n    tag_186:\n        /* \"#utility.yul\":6263:6341   */\n      swap4\n      pop\n        /* \"#utility.yul\":6350:6415   */\n      tag_187\n        /* \"#utility.yul\":6408:6414   */\n      dup2\n        /* \"#utility.yul\":6403:6406   */\n      dup6\n        /* \"#utility.yul\":6396:6400   */\n      0x20\n        /* \"#utility.yul\":6389:6394   */\n      dup7\n        /* \"#utility.yul\":6385:6401   */\n      add\n        /* \"#utility.yul\":6350:6415   */\n      tag_80\n      jump\t// in\n    tag_187:\n        /* \"#utility.yul\":6440:6469   */\n      tag_188\n        /* \"#utility.yul\":6462:6468   */\n      dup2\n        /* \"#utility.yul\":6440:6469   */\n      tag_64\n      jump\t// in\n    tag_188:\n        /* \"#utility.yul\":6435:6438   */\n      dup5\n        /* \"#utility.yul\":6431:6470   */\n      add\n        /* \"#utility.yul\":6424:6470   */\n      swap2\n      pop\n        /* \"#utility.yul\":6191:6476   */\n      pop\n        /* \"#utility.yul\":6099:6476   */\n      swap3\n      swap2\n      pop\n      pop\n      jump\t// out\n        /* \"#utility.yul\":6482:6600   */\n    tag_82:\n        /* \"#utility.yul\":6569:6593   */\n      tag_190\n        /* \"#utility.yul\":6587:6592   */\n      dup2\n        /* \"#utility.yul\":6569:6593   */\n      tag_72\n      jump\t// in\n    tag_190:\n        /* \"#utility.yul\":6564:6567   */\n      dup3\n        /* \"#utility.yul\":6557:6594   */\n      mstore\n        /* \"#utility.yul\":6482:6600   */\n      pop\n      pop\n      jump\t// out\n        /* \"#utility.yul\":6606:6715   */\n    tag_83:\n        /* \"#utility.yul\":6687:6708   */\n      tag_192\n        /* \"#utility.yul\":6702:6707   */\n      dup2\n        /* \"#utility.yul\":6687:6708   */\n      tag_75\n      jump\t// in\n    tag_192:\n        /* \"#utility.yul\":6682:6685   */\n      dup3\n        /* \"#utility.yul\":6675:6709   */\n      mstore\n        /* \"#utility.yul\":6606:6715   */\n      pop\n      pop\n      jump\t// out\n        /* \"#utility.yul\":6721:7543   */\n    tag_19:\n        /* \"#utility.yul\":6954:6958   */\n      0x00\n        /* \"#utility.yul\":6992:6995   */\n      0xa0\n        /* \"#utility.yul\":6981:6990   */\n      dup3\n        /* \"#utility.yul\":6977:6996   */\n      add\n        /* \"#utility.yul\":6969:6996   */\n      swap1\n      pop\n        /* \"#utility.yul\":7042:7051   */\n      dup2\n        /* \"#utility.yul\":7036:7040   */\n      dup2\n        /* \"#utility.yul\":7032:7052   */\n      sub\n        /* \"#utility.yul\":7028:7029   */\n      0x00\n        /* \"#utility.yul\":7017:7026   */\n      dup4\n        /* \"#utility.yul\":7013:7030   */\n      add\n        /* \"#utility.yul\":7006:7053   */\n      mstore\n        /* \"#utility.yul\":7070:7148   */\n      tag_194\n        /* \"#utility.yul\":7143:7147   */\n      dup2\n        /* \"#utility.yul\":7134:7140   */\n      dup9\n        /* \"#utility.yul\":7070:7148   */\n      tag_81\n      jump\t// in\n    tag_194:\n        /* \"#utility.yul\":7062:7148   */\n      swap1\n      pop\n        /* \"#utility.yul\":7158:7230   */\n      tag_195\n        /* \"#utility.yul\":7226:7228   */\n      0x20\n        /* \"#utility.yul\":7215:7224   */\n      dup4\n        /* \"#utility.yul\":7211:7229   */\n      add\n        /* \"#utility.yul\":7202:7208   */\n      dup8\n        /* \"#utility.yul\":7158:7230   */\n      tag_82\n      jump\t// in\n    tag_195:\n        /* \"#utility.yul\":7240:7306   */\n      tag_196\n        /* \"#utility.yul\":7302:7304   */\n      0x40\n        /* \"#utility.yul\":7291:7300   */\n      dup4\n        /* \"#utility.yul\":7287:7305   */\n      add\n        /* \"#utility.yul\":7278:7284   */\n      dup7\n        /* \"#utility.yul\":7240:7306   */\n      tag_83\n      jump\t// in\n    tag_196:\n        /* \"#utility.yul\":7316:7382   */\n      tag_197\n        /* \"#utility.yul\":7378:7380   */\n      0x60\n        /* \"#utility.yul\":7367:7376   */\n      dup4\n        /* \"#utility.yul\":7363:7381   */\n      add\n        /* \"#utility.yul\":7354:7360   */\n      dup6\n        /* \"#utility.yul\":7316:7382   */\n      tag_83\n      jump\t// in\n    tag_197:\n        /* \"#utility.yul\":7430:7439   */\n      dup2\n        /* \"#utility.yul\":7424:7428   */\n      dup2\n        /* \"#utility.yul\":7420:7440   */\n      sub\n        /* \"#utility.yul\":7414:7417   */\n      0x80\n        /* \"#utility.yul\":7403:7412   */\n      dup4\n        /* \"#utility.yul\":7399:7418   */\n      add\n        /* \"#utility.yul\":7392:7441   */\n      mstore\n        /* \"#utility.yul\":7458:7536   */\n      tag_198\n        /* \"#utility.yul\":7531:7535   */\n      dup2\n        /* \"#utility.yul\":7522:7528   */\n      dup5\n        /* \"#utility.yul\":7458:7536   */\n      tag_81\n      jump\t// in\n    tag_198:\n        /* \"#utility.yul\":7450:7536   */\n      swap1\n      pop\n        /* \"#utility.yul\":6721:7543   */\n      swap7\n      swap6\n      pop\n      pop\n      pop\n      pop\n      pop\n      pop\n      jump\t// out\n        /* \"#utility.yul\":7549:7774   */\n    tag_84:\n        /* \"#utility.yul\":7689:7723   */\n      0x596f7520617265206e6f7420617574686f72697a656420746f20766572696679\n        /* \"#utility.yul\":7685:7686   */\n      0x00\n        /* \"#utility.yul\":7677:7683   */\n      dup3\n        /* \"#utility.yul\":7673:7687   */\n      add\n        /* \"#utility.yul\":7666:7724   */\n      mstore\n        /* \"#utility.yul\":7758:7766   */\n      0x2075736572730000000000000000000000000000000000000000000000000000\n        /* \"#utility.yul\":7753:7755   */\n      0x20\n        /* \"#utility.yul\":7745:7751   */\n      dup3\n        /* \"#utility.yul\":7741:7756   */\n      add\n        /* \"#utility.yul\":7734:7767   */\n      mstore\n        /* \"#utility.yul\":7549:7774   */\n      pop\n      jump\t// out\n        /* \"#utility.yul\":7780:8146   */\n    tag_85:\n        /* \"#utility.yul\":7922:7925   */\n      0x00\n        /* \"#utility.yul\":7943:8010   */\n      tag_201\n        /* \"#utility.yul\":8007:8009   */\n      0x26\n        /* \"#utility.yul\":8002:8005   */\n      dup4\n        /* \"#utility.yul\":7943:8010   */\n      tag_79\n      jump\t// in\n    tag_201:\n        /* \"#utility.yul\":7936:8010   */\n      swap2\n      pop\n        /* \"#utility.yul\":8019:8112   */\n      tag_202\n        /* \"#utility.yul\":8108:8111   */\n      dup3\n        /* \"#utility.yul\":8019:8112   */\n      tag_84\n      jump\t// in\n    tag_202:\n        /* \"#utility.yul\":8137:8139   */\n      0x40\n        /* \"#utility.yul\":8132:8135   */\n      dup3\n        /* \"#utility.yul\":8128:8140   */\n      add\n        /* \"#utility.yul\":8121:8140   */\n      swap1\n      pop\n        /* \"#utility.yul\":7780:8146   */\n      swap2\n      swap1\n      pop\n      jump\t// out\n        /* \"#utility.yul\":8152:8571   */\n    tag_24:\n        /* \"#utility.yul\":8318:8322   */\n      0x00\n        /* \"#utility.yul\":8356:8358   */\n      0x20\n        /* \"#utility.yul\":8345:8354   */\n      dup3\n        /* \"#utility.yul\":8341:8359   */\n      add\n        /* \"#utility.yul\":8333:8359   */\n      swap1\n      pop\n        /* \"#utility.yul\":8405:8414   */\n      dup2\n        /* \"#utility.yul\":8399:8403   */\n      dup2\n        /* \"#utility.yul\":8395:8415   */\n      sub\n        /* \"#utility.yul\":8391:8392   */\n      0x00\n        /* \"#utility.yul\":8380:8389   */\n      dup4\n        /* \"#utility.yul\":8376:8393   */\n      add\n        /* \"#utility.yul\":8369:8416   */\n      mstore\n        /* \"#utility.yul\":8433:8564   */\n      tag_204\n        /* \"#utility.yul\":8559:8563   */\n      dup2\n        /* \"#utility.yul\":8433:8564   */\n      tag_85\n      jump\t// in\n    tag_204:\n        /* \"#utility.yul\":8425:8564   */\n      swap1\n      pop\n        /* \"#utility.yul\":8152:8571   */\n      swap2\n      swap1\n      pop\n      jump\t// out\n        /* \"#utility.yul\":8577:8757   */\n    tag_86:\n        /* \"#utility.yul\":8625:8702   */\n      0x4e487b7100000000000000000000000000000000000000000000000000000000\n        /* \"#utility.yul\":8622:8623   */\n      0x00\n        /* \"#utility.yul\":8615:8703   */\n      mstore\n        /* \"#utility.yul\":8722:8726   */\n      0x22\n        /* \"#utility.yul\":8719:8720   */\n      0x04\n        /* \"#utility.yul\":8712:8727   */\n      mstore\n        /* \"#utility.yul\":8746:8750   */\n      0x24\n        /* \"#utility.yul\":8743:8744   */\n      0x00\n        /* \"#utility.yul\":8736:8751   */\n      revert\n        /* \"#utility.yul\":8763:9083   */\n    tag_26:\n        /* \"#utility.yul\":8807:8813   */\n      0x00\n        /* \"#utility.yul\":8844:8845   */\n      0x02\n        /* \"#utility.yul\":8838:8842   */\n      dup3\n        /* \"#utility.yul\":8834:8846   */\n      div\n        /* \"#utility.yul\":8824:8846   */\n      swap1\n      pop\n        /* \"#utility.yul\":8891:8892   */\n      0x01\n        /* \"#utility.yul\":8885:8889   */\n      dup3\n        /* \"#utility.yul\":8881:8893   */\n      and\n        /* \"#utility.yul\":8912:8930   */\n      dup1\n        /* \"#utility.yul\":8902:8983   */\n      tag_207\n      jumpi\n        /* \"#utility.yul\":8968:8972   */\n      0x7f\n        /* \"#utility.yul\":8960:8966   */\n      dup3\n        /* \"#utility.yul\":8956:8973   */\n      and\n        /* \"#utility.yul\":8946:8973   */\n      swap2\n      pop\n        /* \"#utility.yul\":8902:8983   */\n    tag_207:\n        /* \"#utility.yul\":9030:9032   */\n      0x20\n        /* \"#utility.yul\":9022:9028   */\n      dup3\n        /* \"#utility.yul\":9019:9033   */\n      lt\n        /* \"#utility.yul\":8999:9017   */\n      dup2\n        /* \"#utility.yul\":8996:9034   */\n      sub\n        /* \"#utility.yul\":8993:9077   */\n      tag_208\n      jumpi\n        /* \"#utility.yul\":9049:9067   */\n      tag_209\n      tag_86\n      jump\t// in\n    tag_209:\n        /* \"#utility.yul\":8993:9077   */\n    tag_208:\n        /* \"#utility.yul\":8814:9083   */\n      pop\n        /* \"#utility.yul\":8763:9083   */\n      swap2\n      swap1\n      pop\n      jump\t// out\n        /* \"#utility.yul\":9089:9263   */\n    tag_87:\n        /* \"#utility.yul\":9229:9255   */\n      0x5573657220697320616c72656164792076657269666965640000000000000000\n        /* \"#utility.yul\":9225:9226   */\n      0x00\n        /* \"#utility.yul\":9217:9223   */\n      dup3\n        /* \"#utility.yul\":9213:9227   */\n      add\n        /* \"#utility.yul\":9206:9256   */\n      mstore\n        /* \"#utility.yul\":9089:9263   */\n      pop\n      jump\t// out\n        /* \"#utility.yul\":9269:9635   */\n    tag_88:\n        /* \"#utility.yul\":9411:9414   */\n      0x00\n        /* \"#utility.yul\":9432:9499   */\n      tag_212\n        /* \"#utility.yul\":9496:9498   */\n      0x18\n        /* \"#utility.yul\":9491:9494   */\n      dup4\n        /* \"#utility.yul\":9432:9499   */\n      tag_79\n      jump\t// in\n    tag_212:\n        /* \"#utility.yul\":9425:9499   */\n      swap2\n      pop\n        /* \"#utility.yul\":9508:9601   */\n      tag_213\n        /* \"#utility.yul\":9597:9600   */\n      dup3\n        /* \"#utility.yul\":9508:9601   */\n      tag_87\n      jump\t// in\n    tag_213:\n        /* \"#utility.yul\":9626:9628   */\n      0x20\n        /* \"#utility.yul\":9621:9624   */\n      dup3\n        /* \"#utility.yul\":9617:9629   */\n      add\n        /* \"#utility.yul\":9610:9629   */\n      swap1\n      pop\n        /* \"#utility.yul\":9269:9635   */\n      swap2\n      swap1\n      pop\n      jump\t// out\n        /* \"#utility.yul\":9641:10060   */\n    tag_29:\n        /* \"#utility.yul\":9807:9811   */\n      0x00\n        /* \"#utility.yul\":9845:9847   */\n      0x20\n        /* \"#utility.yul\":9834:9843   */\n      dup3\n        /* \"#utility.yul\":9830:9848   */\n      add\n        /* \"#utility.yul\":9822:9848   */\n      swap1\n      pop\n        /* \"#utility.yul\":9894:9903   */\n      dup2\n        /* \"#utility.yul\":9888:9892   */\n      dup2\n        /* \"#utility.yul\":9884:9904   */\n      sub\n        /* \"#utility.yul\":9880:9881   */\n      0x00\n        /* \"#utility.yul\":9869:9878   */\n      dup4\n        /* \"#utility.yul\":9865:9882   */\n      add\n        /* \"#utility.yul\":9858:9905   */\n      mstore\n        /* \"#utility.yul\":9922:10053   */\n      tag_215\n        /* \"#utility.yul\":10048:10052   */\n      dup2\n        /* \"#utility.yul\":9922:10053   */\n      tag_88\n      jump\t// in\n    tag_215:\n        /* \"#utility.yul\":9914:10053   */\n      swap1\n      pop\n        /* \"#utility.yul\":9641:10060   */\n      swap2\n      swap1\n      pop\n      jump\t// out\n        /* \"#utility.yul\":10066:10207   */\n    tag_89:\n        /* \"#utility.yul\":10115:10119   */\n      0x00\n        /* \"#utility.yul\":10138:10141   */\n      dup2\n        /* \"#utility.yul\":10130:10141   */\n      swap1\n      pop\n        /* \"#utility.yul\":10161:10164   */\n      dup2\n        /* \"#utility.yul\":10158:10159   */\n      0x00\n        /* \"#utility.yul\":10151:10165   */\n      mstore\n        /* \"#utility.yul\":10195:10199   */\n      0x20\n        /* \"#utility.yul\":10192:10193   */\n      0x00\n        /* \"#utility.yul\":10182:10200   */\n      keccak256\n        /* \"#utility.yul\":10174:10200   */\n      swap1\n      pop\n        /* \"#utility.yul\":10066:10207   */\n      swap2\n      swap1\n      pop\n      jump\t// out\n        /* \"#utility.yul\":10213:10306   */\n    tag_90:\n        /* \"#utility.yul\":10250:10256   */\n      0x00\n        /* \"#utility.yul\":10297:10299   */\n      0x20\n        /* \"#utility.yul\":10292:10294   */\n      0x1f\n        /* \"#utility.yul\":10285:10290   */\n      dup4\n        /* \"#utility.yul\":10281:10295   */\n      add\n        /* \"#utility.yul\":10277:10300   */\n      div\n        /* \"#utility.yul\":10267:10300   */\n      swap1\n      pop\n        /* \"#utility.yul\":10213:10306   */\n      swap2\n      swap1\n      pop\n      jump\t// out\n        /* \"#utility.yul\":10312:10419   */\n    tag_91:\n        /* \"#utility.yul\":10356:10364   */\n      0x00\n        /* \"#utility.yul\":10406:10411   */\n      dup3\n        /* \"#utility.yul\":10400:10404   */\n      dup3\n        /* \"#utility.yul\":10396:10412   */\n      shl\n        /* \"#utility.yul\":10375:10412   */\n      swap1\n      pop\n        /* \"#utility.yul\":10312:10419   */\n      swap3\n      swap2\n      pop\n      pop\n      jump\t// out\n        /* \"#utility.yul\":10425:10818   */\n    tag_92:\n        /* \"#utility.yul\":10494:10500   */\n      0x00\n        /* \"#utility.yul\":10544:10545   */\n      0x08\n        /* \"#utility.yul\":10532:10542   */\n      dup4\n        /* \"#utility.yul\":10528:10546   */\n      mul\n        /* \"#utility.yul\":10567:10664   */\n      tag_220\n        /* \"#utility.yul\":10597:10663   */\n      0xffffffffffffffffffffffffffffffffffffffffffffffffffffffffffffffff\n        /* \"#utility.yul\":10586:10595   */\n      dup3\n        /* \"#utility.yul\":10567:10664   */\n      tag_91\n      jump\t// in\n    tag_220:\n        /* \"#utility.yul\":10685:10724   */\n      tag_221\n        /* \"#utility.yul\":10715:10723   */\n      dup7\n        /* \"#utility.yul\":10704:10713   */\n      dup4\n        /* \"#utility.yul\":10685:10724   */\n      tag_91\n      jump\t// in\n    tag_221:\n        /* \"#utility.yul\":10673:10724   */\n      swap6\n      pop\n        /* \"#utility.yul\":10757:10761   */\n      dup1\n        /* \"#utility.yul\":10753:10762   */\n      not\n        /* \"#utility.yul\":10746:10751   */\n      dup5\n        /* \"#utility.yul\":10742:10763   */\n      and\n        /* \"#utility.yul\":10733:10763   */\n      swap4\n      pop\n        /* \"#utility.yul\":10806:10810   */\n      dup1\n        /* \"#utility.yul\":10796:10804   */\n      dup7\n        /* \"#utility.yul\":10792:10811   */\n      and\n        /* \"#utility.yul\":10785:10790   */\n      dup5\n        /* \"#utility.yul\":10782:10812   */\n      or\n        /* \"#utility.yul\":10772:10812   */\n      swap3\n      pop\n        /* \"#utility.yul\":10501:10818   */\n      pop\n      pop\n        /* \"#utility.yul\":10425:10818   */\n      swap4\n      swap3\n      pop\n      pop\n      pop\n      jump\t// out\n        /* \"#utility.yul\":10824:10884   */\n    tag_93:\n        /* \"#utility.yul\":10852:10855   */\n      0x00\n        /* \"#utility.yul\":10873:10878   */\n      dup2\n        /* \"#utility.yul\":10866:10878   */\n      swap1\n      pop\n        /* \"#utility.yul\":10824:10884   */\n      swap2\n      swap1\n      pop\n      jump\t// out\n        /* \"#utility.yul\":10890:11032   */\n    tag_94:\n        /* \"#utility.yul\":10940:10949   */\n      0x00\n        /* \"#utility.yul\":10973:11026   */\n      tag_224\n        /* \"#utility.yul\":10991:11025   */\n      tag_225\n        /* \"#utility.yul\":11000:11024   */\n      tag_226\n        /* \"#utility.yul\":11018:11023   */\n      dup5\n        /* \"#utility.yul\":11000:11024   */\n      tag_72\n      jump\t// in\n    tag_226:\n        /* \"#utility.yul\":10991:11025   */\n      tag_93\n      jump\t// in\n    tag_225:\n        /* \"#utility.yul\":10973:11026   */\n      tag_72\n      jump\t// in\n    tag_224:\n        /* \"#utility.yul\":10960:11026   */\n      swap1\n      pop\n        /* \"#utility.yul\":10890:11032   */\n      swap2\n      swap1\n      pop\n      jump\t// out\n        /* \"#utility.yul\":11038:11113   */\n    tag_95:\n        /* \"#utility.yul\":11081:11084   */\n      0x00\n        /* \"#utility.yul\":11102:11107   */\n      dup2\n        /* \"#utility.yul\":11095:11107   */\n      swap1\n      pop\n        /* \"#utility.yul\":11038:11113   */\n      swap2\n      swap1\n      pop\n      jump\t// out\n        /* \"#utility.yul\":11119:11388   */\n    tag_96:\n        /* \"#utility.yul\":11229:11268   */\n      tag_229\n        /* \"#utility.yul\":11260:11267   */\n      dup4\n        /* \"#utility.yul\":11229:11268   */\n      tag_94\n      jump\t// in\n    tag_229:\n        /* \"#utility.yul\":11290:11381   */\n      tag_230\n        /* \"#utility.yul\":11339:11380   */\n      tag_231\n        /* \"#utility.yul\":11363:11379   */\n      dup3\n        /* \"#utility.yul\":11339:11380   */\n      tag_95\n      jump\t// in\n    tag_231:\n        /* \"#utility.yul\":11331:11337   */\n      dup5\n        /* \"#utility.yul\":11324:11328   */\n      dup5\n        /* \"#utility.yul\":11318:11329   */\n      sload\n        /* \"#utility.yul\":11290:11381   */\n      tag_92\n      jump\t// in\n    tag_230:\n        /* \"#utility.yul\":11284:11288   */\n      dup3\n        /* \"#utility.yul\":11277:11382   */\n      sstore\n        /* \"#utility.yul\":11195:11388   */\n      pop\n        /* \"#utility.yul\":11119:11388   */\n      pop\n      pop\n      pop\n      jump\t// out\n        /* \"#utility.yul\":11394:11467   */\n    tag_97:\n        /* \"#utility.yul\":11439:11442   */\n      0x00\n        /* \"#utility.yul\":11394:11467   */\n      swap1\n      jump\t// out\n        /* \"#utility.yul\":11473:11662   */\n    tag_98:\n        /* \"#utility.yul\":11550:11582   */\n      tag_234\n      tag_97\n      jump\t// in\n    tag_234:\n        /* \"#utility.yul\":11591:11656   */\n      tag_235\n        /* \"#utility.yul\":11649:11655   */\n      dup2\n        /* \"#utility.yul\":11641:11647   */\n      dup5\n        /* \"#utility.yul\":11635:11639   */\n      dup5\n        /* \"#utility.yul\":11591:11656   */\n      tag_96\n      jump\t// in\n    tag_235:\n        /* \"#utility.yul\":11526:11662   */\n      pop\n        /* \"#utility.yul\":11473:11662   */\n      pop\n      pop\n      jump\t// out\n        /* \"#utility.yul\":11668:11854   */\n    tag_99:\n        /* \"#utility.yul\":11728:11848   */\n    tag_237:\n        /* \"#utility.yul\":11745:11748   */\n      dup2\n        /* \"#utility.yul\":11738:11743   */\n      dup2\n        /* \"#utility.yul\":11735:11749   */\n      lt\n        /* \"#utility.yul\":11728:11848   */\n      iszero\n      tag_239\n      jumpi\n        /* \"#utility.yul\":11799:11838   */\n      tag_240\n        /* \"#utility.yul\":11836:11837   */\n      0x00\n        /* \"#utility.yul\":11829:11834   */\n      dup3\n        /* \"#utility.yul\":11799:11838   */\n      tag_98\n      jump\t// in\n    tag_240:\n        /* \"#utility.yul\":11772:11773   */\n      0x01\n        /* \"#utility.yul\":11765:11770   */\n      dup2\n        /* \"#utility.yul\":11761:11774   */\n      add\n        /* \"#utility.yul\":11752:11774   */\n      swap1\n      pop\n        /* \"#utility.yul\":11728:11848   */\n      jump(tag_237)\n    tag_239:\n        /* \"#utility.yul\":11668:11854   */\n      pop\n      pop\n      jump\t// out\n        /* \"#utility.yul\":11860:12403   */\n    tag_100:\n        /* \"#utility.yul\":11961:11963   */\n      0x1f\n        /* \"#utility.yul\":11956:11959   */\n      dup3\n        /* \"#utility.yul\":11953:11964   */\n      gt\n        /* \"#utility.yul\":11950:12396   */\n      iszero\n      tag_242\n      jumpi\n        /* \"#utility.yul\":11995:12033   */\n      tag_243\n        /* \"#utility.yul\":12027:12032   */\n      dup2\n        /* \"#utility.yul\":11995:12033   */\n      tag_89\n      jump\t// in\n    tag_243:\n        /* \"#utility.yul\":12079:12108   */\n      tag_244\n        /* \"#utility.yul\":12097:12107   */\n      dup5\n        /* \"#utility.yul\":12079:12108   */\n      tag_90\n      jump\t// in\n    tag_244:\n        /* \"#utility.yul\":12069:12077   */\n      dup2\n        /* \"#utility.yul\":12065:12109   */\n      add\n        /* \"#utility.yul\":12262:12264   */\n      0x20\n        /* \"#utility.yul\":12250:12260   */\n      dup6\n        /* \"#utility.yul\":12247:12265   */\n      lt\n        /* \"#utility.yul\":12244:12293   */\n      iszero\n      tag_245\n      jumpi\n        /* \"#utility.yul\":12283:12291   */\n      dup2\n        /* \"#utility.yul\":12268:12291   */\n      swap1\n      pop\n        /* \"#utility.yul\":12244:12293   */\n    tag_245:\n        /* \"#utility.yul\":12306:12386   */\n      tag_246\n        /* \"#utility.yul\":12362:12384   */\n      tag_247\n        /* \"#utility.yul\":12380:12383   */\n      dup6\n        /* \"#utility.yul\":12362:12384   */\n      tag_90\n      jump\t// in\n    tag_247:\n        /* \"#utility.yul\":12352:12360   */\n      dup4\n        /* \"#utility.yul\":12348:12385   */\n      add\n        /* \"#utility.yul\":12335:12346   */\n      dup3\n        /* \"#utility.yul\":12306:12386   */\n      tag_99\n      jump\t// in\n    tag_246:\n        /* \"#utility.yul\":11965:12396   */\n      pop\n      pop\n        /* \"#utility.yul\":11950:12396   */\n    tag_242:\n        /* \"#utility.yul\":11860:12403   */\n      pop\n      pop\n      pop\n      jump\t// out\n        /* \"#utility.yul\":12409:12526   */\n    tag_101:\n        /* \"#utility.yul\":12463:12471   */\n      0x00\n        /* \"#utility.yul\":12513:12518   */\n      dup3\n        /* \"#utility.yul\":12507:12511   */\n      dup3\n        /* \"#utility.yul\":12503:12519   */\n      shr\n        /* \"#utility.yul\":12482:12519   */\n      swap1\n      pop\n        /* \"#utility.yul\":12409:12526   */\n      swap3\n      swap2\n      pop\n      pop\n      jump\t// out\n        /* \"#utility.yul\":12532:12701   */\n    tag_102:\n        /* \"#utility.yul\":12576:12582   */\n      0x00\n        /* \"#utility.yul\":12609:12660   */\n      tag_250\n        /* \"#utility.yul\":12657:12658   */\n      0x00\n        /* \"#utility.yul\":12653:12659   */\n      not\n        /* \"#utility.yul\":12645:12650   */\n      dup5\n        /* \"#utility.yul\":12642:12643   */\n      0x08\n        /* \"#utility.yul\":12638:12651   */\n      mul\n        /* \"#utility.yul\":12609:12660   */\n      tag_101\n      jump\t// in\n    tag_250:\n        /* \"#utility.yul\":12605:12661   */\n      not\n        /* \"#utility.yul\":12690:12694   */\n      dup1\n        /* \"#utility.yul\":12684:12688   */\n      dup4\n        /* \"#utility.yul\":12680:12695   */\n      and\n        /* \"#utility.yul\":12670:12695   */\n      swap2\n      pop\n        /* \"#utility.yul\":12583:12701   */\n      pop\n        /* \"#utility.yul\":12532:12701   */\n      swap3\n      swap2\n      pop\n      pop\n      jump\t// out\n        /* \"#utility.yul\":12706:13001   */\n    tag_103:\n        /* \"#utility.yul\":12782:12786   */\n      0x00\n        /* \"#utility.yul\":12928:12957   */\n      tag_252\n        /* \"#utility.yul\":12953:12956   */\n      dup4\n        /* \"#utility.yul\":12947:12951   */\n      dup4\n        /* \"#utility.yul\":12928:12957   */\n      tag_102\n      jump\t// in\n    tag_252:\n        /* \"#utility.yul\":12920:12957   */\n      swap2\n      pop\n        /* \"#utility.yul\":12990:12993   */\n      dup3\n        /* \"#utility.yul\":12987:12988   */\n      0x02\n        /* \"#utility.yul\":12983:12994   */\n      mul\n        /* \"#utility.yul\":12977:12981   */\n      dup3\n        /* \"#utility.yul\":12974:12995   */\n      or\n        /* \"#utility.yul\":12966:12995   */\n      swap1\n      pop\n        /* \"#utility.yul\":12706:13001   */\n      swap3\n      swap2\n      pop\n      pop\n      jump\t// out\n        /* \"#utility.yul\":13006:14401   */\n    tag_31:\n        /* \"#utility.yul\":13123:13160   */\n      tag_254\n        /* \"#utility.yul\":13156:13159   */\n      dup3\n        /* \"#utility.yul\":13123:13160   */\n      tag_78\n      jump\t// in\n    tag_254:\n        /* \"#utility.yul\":13225:13243   */\n      0xffffffffffffffff\n        /* \"#utility.yul\":13217:13223   */\n      dup2\n        /* \"#utility.yul\":13214:13244   */\n      gt\n        /* \"#utility.yul\":13211:13267   */\n      iszero\n      tag_255\n      jumpi\n        /* \"#utility.yul\":13247:13265   */\n      tag_256\n      tag_65\n      jump\t// in\n    tag_256:\n        /* \"#utility.yul\":13211:13267   */\n    tag_255:\n        /* \"#utility.yul\":13291:13329   */\n      tag_257\n        /* \"#utility.yul\":13323:13327   */\n      dup3\n        /* \"#utility.yul\":13317:13328   */\n      sload\n        /* \"#utility.yul\":13291:13329   */\n      tag_26\n      jump\t// in\n    tag_257:\n        /* \"#utility.yul\":13376:13443   */\n      tag_258\n        /* \"#utility.yul\":13436:13442   */\n      dup3\n        /* \"#utility.yul\":13428:13434   */\n      dup3\n        /* \"#utility.yul\":13422:13426   */\n      dup6\n        /* \"#utility.yul\":13376:13443   */\n      tag_100\n      jump\t// in\n    tag_258:\n        /* \"#utility.yul\":13470:13471   */\n      0x00\n        /* \"#utility.yul\":13494:13498   */\n      0x20\n        /* \"#utility.yul\":13481:13498   */\n      swap1\n      pop\n        /* \"#utility.yul\":13526:13528   */\n      0x1f\n        /* \"#utility.yul\":13518:13524   */\n      dup4\n        /* \"#utility.yul\":13515:13529   */\n      gt\n        /* \"#utility.yul\":13543:13544   */\n      0x01\n        /* \"#utility.yul\":13538:14156   */\n      dup2\n      eq\n      tag_260\n      jumpi\n        /* \"#utility.yul\":14200:14201   */\n      0x00\n        /* \"#utility.yul\":14217:14223   */\n      dup5\n        /* \"#utility.yul\":14214:14291   */\n      iszero\n      tag_261\n      jumpi\n        /* \"#utility.yul\":14266:14275   */\n      dup3\n        /* \"#utility.yul\":14261:14264   */\n      dup8\n        /* \"#utility.yul\":14257:14276   */\n      add\n        /* \"#utility.yul\":14251:14277   */\n      mload\n        /* \"#utility.yul\":14242:14277   */\n      swap1\n      pop\n        /* \"#utility.yul\":14214:14291   */\n    tag_261:\n        /* \"#utility.yul\":14317:14384   */\n      tag_262\n        /* \"#utility.yul\":14377:14383   */\n      dup6\n        /* \"#utility.yul\":14370:14375   */\n      dup3\n        /* \"#utility.yul\":14317:14384   */\n      tag_103\n      jump\t// in\n    tag_262:\n        /* \"#utility.yul\":14311:14315   */\n      dup7\n        /* \"#utility.yul\":14304:14385   */\n      sstore\n        /* \"#utility.yul\":14173:14395   */\n      pop\n        /* \"#utility.yul\":13508:14395   */\n      jump(tag_259)\n        /* \"#utility.yul\":13538:14156   */\n    tag_260:\n        /* \"#utility.yul\":13590:13594   */\n      0x1f\n        /* \"#utility.yul\":13586:13595   */\n      not\n        /* \"#utility.yul\":13578:13584   */\n      dup5\n        /* \"#utility.yul\":13574:13596   */\n      and\n        /* \"#utility.yul\":13624:13661   */\n      tag_263\n        /* \"#utility.yul\":13656:13660   */\n      dup7\n        /* \"#utility.yul\":13624:13661   */\n      tag_89\n      jump\t// in\n    tag_263:\n        /* \"#utility.yul\":13683:13684   */\n      0x00\n        /* \"#utility.yul\":13697:13905   */\n    tag_264:\n        /* \"#utility.yul\":13711:13718   */\n      dup3\n        /* \"#utility.yul\":13708:13709   */\n      dup2\n        /* \"#utility.yul\":13705:13719   */\n      lt\n        /* \"#utility.yul\":13697:13905   */\n      iszero\n      tag_266\n      jumpi\n        /* \"#utility.yul\":13790:13799   */\n      dup5\n        /* \"#utility.yul\":13785:13788   */\n      dup10\n        /* \"#utility.yul\":13781:13800   */\n      add\n        /* \"#utility.yul\":13775:13801   */\n      mload\n        /* \"#utility.yul\":13767:13773   */\n      dup3\n        /* \"#utility.yul\":13760:13802   */\n      sstore\n        /* \"#utility.yul\":13841:13842   */\n      0x01\n        /* \"#utility.yul\":13833:13839   */\n      dup3\n        /* \"#utility.yul\":13829:13843   */\n      add\n        /* \"#utility.yul\":13819:13843   */\n      swap2\n      pop\n        /* \"#utility.yul\":13888:13890   */\n      0x20\n        /* \"#utility.yul\":13877:13886   */\n      dup6\n        /* \"#utility.yul\":13873:13891   */\n      add\n        /* \"#utility.yul\":13860:13891   */\n      swap5\n      pop\n        /* \"#utility.yul\":13734:13738   */\n      0x20\n        /* \"#utility.yul\":13731:13732   */\n      dup2\n        /* \"#utility.yul\":13727:13739   */\n      add\n        /* \"#utility.yul\":13722:13739   */\n      swap1\n      pop\n        /* \"#utility.yul\":13697:13905   */\n      jump(tag_264)\n    tag_266:\n        /* \"#utility.yul\":13933:13939   */\n      dup7\n        /* \"#utility.yul\":13924:13931   */\n      dup4\n        /* \"#utility.yul\":13921:13940   */\n      lt\n        /* \"#utility.yul\":13918:14097   */\n      iszero\n      tag_267\n      jumpi\n        /* \"#utility.yul\":13991:14000   */\n      dup5\n        /* \"#utility.yul\":13986:13989   */\n      dup10\n        /* \"#utility.yul\":13982:14001   */\n      add\n        /* \"#utility.yul\":13976:14002   */\n      mload\n        /* \"#utility.yul\":14034:14082   */\n      tag_268\n        /* \"#utility.yul\":14076:14080   */\n      0x1f\n        /* \"#utility.yul\":14068:14074   */\n      dup10\n        /* \"#utility.yul\":14064:14081   */\n      and\n        /* \"#utility.yul\":14053:14062   */\n      dup3\n        /* \"#utility.yul\":14034:14082   */\n      tag_102\n      jump\t// in\n    tag_268:\n        /* \"#utility.yul\":14026:14032   */\n      dup4\n        /* \"#utility.yul\":14019:14083   */\n      sstore\n        /* \"#utility.yul\":13941:14097   */\n      pop\n        /* \"#utility.yul\":13918:14097   */\n    tag_267:\n        /* \"#utility.yul\":14143:14144   */\n      0x01\n        /* \"#utility.yul\":14139:14140   */\n      0x02\n        /* \"#utility.yul\":14131:14137   */\n      dup9\n        /* \"#utility.yul\":14127:14141   */\n      mul\n        /* \"#utility.yul\":14123:14145   */\n      add\n        /* \"#utility.yul\":14117:14121   */\n      dup9\n        /* \"#utility.yul\":14110:14146   */\n      sstore\n        /* \"#utility.yul\":13545:14156   */\n      pop\n      pop\n      pop\n        /* \"#utility.yul\":13508:14395   */\n    tag_259:\n      pop\n        /* \"#utility.yul\":13098:14401   */\n      pop\n      pop\n      pop\n        /* \"#utility.yul\":13006:14401   */\n      pop\n      pop\n      jump\t// out\n        /* \"#utility.yul\":14407:14525   */\n    tag_104:\n        /* \"#utility.yul\":14494:14518   */\n      tag_270\n        /* \"#utility.yul\":14512:14517   */\n      dup2\n        /* \"#utility.yul\":14494:14518   */\n      tag_59\n      jump\t// in\n    tag_270:\n        /* \"#utility.yul\":14489:14492   */\n      dup3\n        /* \"#utility.yul\":14482:14519   */\n      mstore\n        /* \"#utility.yul\":14407:14525   */\n      pop\n      pop\n      jump\t// out\n        /* \"#utility.yul\":14531:14954   */\n    tag_33:\n        /* \"#utility.yul\":14672:14676   */\n      0x00\n        /* \"#utility.yul\":14710:14712   */\n      0x40\n        /* \"#utility.yul\":14699:14708   */\n      dup3\n        /* \"#utility.yul\":14695:14713   */\n      add\n        /* \"#utility.yul\":14687:14713   */\n      swap1\n      pop\n        /* \"#utility.yul\":14723:14794   */\n      tag_272\n        /* \"#utility.yul\":14791:14792   */\n      0x00\n        /* \"#utility.yul\":14780:14789   */\n      dup4\n        /* \"#utility.yul\":14776:14793   */\n      add\n        /* \"#utility.yul\":14767:14773   */\n      dup6\n        /* \"#utility.yul\":14723:14794   */\n      tag_104\n      jump\t// in\n    tag_272:\n        /* \"#utility.yul\":14841:14850   */\n      dup2\n        /* \"#utility.yul\":14835:14839   */\n      dup2\n        /* \"#utility.yul\":14831:14851   */\n      sub\n        /* \"#utility.yul\":14826:14828   */\n      0x20\n        /* \"#utility.yul\":14815:14824   */\n      dup4\n        /* \"#utility.yul\":14811:14829   */\n      add\n        /* \"#utility.yul\":14804:14852   */\n      mstore\n        /* \"#utility.yul\":14869:14947   */\n      tag_273\n        /* \"#utility.yul\":14942:14946   */\n      dup2\n        /* \"#utility.yul\":14933:14939   */\n      dup5\n        /* \"#utility.yul\":14869:14947   */\n      tag_81\n      jump\t// in\n    tag_273:\n        /* \"#utility.yul\":14861:14947   */\n      swap1\n      pop\n        /* \"#utility.yul\":14531:14954   */\n      swap4\n      swap3\n      pop\n      pop\n      pop\n      jump\t// out\n        /* \"#utility.yul\":14960:15126   */\n    tag_105:\n        /* \"#utility.yul\":15100:15118   */\n      0x4e616d6520697320726571756972656400000000000000000000000000000000\n        /* \"#utility.yul\":15096:15097   */\n      0x00\n        /* \"#utility.yul\":15088:15094   */\n      dup3\n        /* \"#utility.yul\":15084:15098   */\n      add\n        /* \"#utility.yul\":15077:15119   */\n      mstore\n        /* \"#utility.yul\":14960:15126   */\n      pop\n      jump\t// out\n        /* \"#utility.yul\":15132:15498   */\n    tag_106:\n        /* \"#utility.yul\":15274:15277   */\n      0x00\n        /* \"#utility.yul\":15295:15362   */\n      tag_276\n        /* \"#utility.yul\":15359:15361   */\n      0x10\n        /* \"#utility.yul\":15354:15357   */\n      dup4\n        /* \"#utility.yul\":15295:15362   */\n      tag_79\n      jump\t// in\n    tag_276:\n        /* \"#utility.yul\":15288:15362   */\n      swap2\n      pop\n        /* \"#utility.yul\":15371:15464   */\n      tag_277\n        /* \"#utility.yul\":15460:15463   */\n      dup3\n        /* \"#utility.yul\":15371:15464   */\n      tag_105\n      jump\t// in\n    tag_277:\n        /* \"#utility.yul\":15489:15491   */\n      0x20\n        /* \"#utility.yul\":15484:15487   */\n      dup3\n        /* \"#utility.yul\":15480:15492   */\n      add\n        /* \"#utility.yul\":15473:15492   */\n      swap1\n      pop\n        /* \"#utility.yul\":15132:15498   */\n      swap2\n      swap1\n      pop\n      jump\t// out\n        /* \"#utility.yul\":15504:15923   */\n    tag_37:\n        /* \"#utility.yul\":15670:15674   */\n      0x00\n        /* \"#utility.yul\":15708:15710   */\n      0x20\n        /* \"#utility.yul\":15697:15706   */\n      dup3\n        /* \"#utility.yul\":15693:15711   */\n      add\n        /* \"#utility.yul\":15685:15711   */\n      swap1\n      pop\n        /* \"#utility.yul\":15757:15766   */\n      dup2\n        /* \"#utility.yul\":15751:15755   */\n      dup2\n        /* \"#utility.yul\":15747:15767   */\n      sub\n        /* \"#utility.yul\":15743:15744   */\n      0x00\n        /* \"#utility.yul\":15732:15741   */\n      dup4\n        /* \"#utility.yul\":15728:15745   */\n      add\n        /* \"#utility.yul\":15721:15768   */\n      mstore\n        /* \"#utility.yul\":15785:15916   */\n      tag_279\n        /* \"#utility.yul\":15911:15915   */\n      dup2\n        /* \"#utility.yul\":15785:15916   */\n      tag_106\n      jump\t// in\n    tag_279:\n        /* \"#utility.yul\":15777:15916   */\n      swap1\n      pop\n        /* \"#utility.yul\":15504:15923   */\n      swap2\n      swap1\n      pop\n      jump\t// out\n        /* \"#utility.yul\":15929:16101   */\n    tag_107:\n        /* \"#utility.yul\":16069:16093   */\n      0x5573657220616c7265616479207369676e656420757000000000000000000000\n        /* \"#utility.yul\":16065:16066   */\n      0x00\n        /* \"#utility.yul\":16057:16063   */\n      dup3\n        /* \"#utility.yul\":16053:16067   */\n      add\n        /* \"#utility.yul\":16046:16094   */\n      mstore\n        /* \"#utility.yul\":15929:16101   */\n      pop\n      jump\t// out\n        /* \"#utility.yul\":16107:16473   */\n    tag_108:\n        /* \"#utility.yul\":16249:16252   */\n      0x00\n        /* \"#utility.yul\":16270:16337   */\n      tag_282\n        /* \"#utility.yul\":16334:16336   */\n      0x16\n        /* \"#utility.yul\":16329:16332   */\n      dup4\n        /* \"#utility.yul\":16270:16337   */\n      tag_79\n      jump\t// in\n    tag_282:\n        /* \"#utility.yul\":16263:16337   */\n      swap2\n      pop\n        /* \"#utility.yul\":16346:16439   */\n      tag_283\n        /* \"#utility.yul\":16435:16438   */\n      dup3\n        /* \"#utility.yul\":16346:16439   */\n      tag_107\n      jump\t// in\n    tag_283:\n        /* \"#utility.yul\":16464:16466   */\n      0x20\n        /* \"#utility.yul\":16459:16462   */\n      dup3\n        /* \"#utility.yul\":16455:16467   */\n      add\n        /* \"#utility.yul\":16448:16467   */\n      swap1\n      pop\n        /* \"#utility.yul\":16107:16473   */\n      swap2\n      swap1\n      pop\n      jump\t// out\n        /* \"#utility.yul\":16479:16898   */\n    tag_40:\n        /* \"#utility.yul\":16645:16649   */\n      0x00\n        /* \"#utility.yul\":16683:16685   */\n      0x20\n        /* \"#utility.yul\":16672:16681   */\n      dup3\n        /* \"#utility.yul\":16668:16686   */\n      add\n        /* \"#utility.yul\":16660:16686   */\n      swap1\n      pop\n        /* \"#utility.yul\":16732:16741   */\n      dup2\n        /* \"#utility.yul\":16726:16730   */\n      dup2\n        /* \"#utility.yul\":16722:16742   */\n      sub\n        /* \"#utility.yul\":16718:16719   */\n      0x00\n        /* \"#utility.yul\":16707:16716   */\n      dup4\n        /* \"#utility.yul\":16703:16720   */\n      add\n        /* \"#utility.yul\":16696:16743   */\n      mstore\n        /* \"#utility.yul\":16760:16891   */\n      tag_285\n        /* \"#utility.yul\":16886:16890   */\n      dup2\n        /* \"#utility.yul\":16760:16891   */\n      tag_108\n      jump\t// in\n    tag_285:\n        /* \"#utility.yul\":16752:16891   */\n      swap1\n      pop\n        /* \"#utility.yul\":16479:16898   */\n      swap2\n      swap1\n      pop\n      jump\t// out\n        /* \"#utility.yul\":16904:17536   */\n    tag_44:\n        /* \"#utility.yul\":17095:17099   */\n      0x00\n        /* \"#utility.yul\":17133:17136   */\n      0x80\n        /* \"#utility.yul\":17122:17131   */\n      dup3\n        /* \"#utility.yul\":17118:17137   */\n      add\n        /* \"#utility.yul\":17110:17137   */\n      swap1\n      pop\n        /* \"#utility.yul\":17147:17218   */\n      tag_287\n        /* \"#utility.yul\":17215:17216   */\n      0x00\n        /* \"#utility.yul\":17204:17213   */\n      dup4\n        /* \"#utility.yul\":17200:17217   */\n      add\n        /* \"#utility.yul\":17191:17197   */\n      dup8\n        /* \"#utility.yul\":17147:17218   */\n      tag_104\n      jump\t// in\n    tag_287:\n        /* \"#utility.yul\":17265:17274   */\n      dup2\n        /* \"#utility.yul\":17259:17263   */\n      dup2\n        /* \"#utility.yul\":17255:17275   */\n      sub\n        /* \"#utility.yul\":17250:17252   */\n      0x20\n        /* \"#utility.yul\":17239:17248   */\n      dup4\n        /* \"#utility.yul\":17235:17253   */\n      add\n        /* \"#utility.yul\":17228:17276   */\n      mstore\n        /* \"#utility.yul\":17293:17371   */\n      tag_288\n        /* \"#utility.yul\":17366:17370   */\n      dup2\n        /* \"#utility.yul\":17357:17363   */\n      dup7\n        /* \"#utility.yul\":17293:17371   */\n      tag_81\n      jump\t// in\n    tag_288:\n        /* \"#utility.yul\":17285:17371   */\n      swap1\n      pop\n        /* \"#utility.yul\":17381:17453   */\n      tag_289\n        /* \"#utility.yul\":17449:17451   */\n      0x40\n        /* \"#utility.yul\":17438:17447   */\n      dup4\n        /* \"#utility.yul\":17434:17452   */\n      add\n        /* \"#utility.yul\":17425:17431   */\n      dup6\n        /* \"#utility.yul\":17381:17453   */\n      tag_82\n      jump\t// in\n    tag_289:\n        /* \"#utility.yul\":17463:17529   */\n      tag_290\n        /* \"#utility.yul\":17525:17527   */\n      0x60\n        /* \"#utility.yul\":17514:17523   */\n      dup4\n        /* \"#utility.yul\":17510:17528   */\n      add\n        /* \"#utility.yul\":17501:17507   */\n      dup5\n        /* \"#utility.yul\":17463:17529   */\n      tag_83\n      jump\t// in\n    tag_290:\n        /* \"#utility.yul\":16904:17536   */\n      swap6\n      swap5\n      pop\n      pop\n      pop\n      pop\n      pop\n      jump\t// out\n\n    auxdata: 0xa2646970667358221220996ab83ba95940f355b4d7b60a196dfd71b0390a9f77b4a1630012cc5e0ec16e64736f6c63430008120033\n}\n",
				"bytecode": {
					"linkReferences": {},
					"object": "608060405234801561001057600080fd5b50610fd9806100206000396000f3fe608060405234801561001057600080fd5b50600436106100415760003560e01c8063641d7a7814610046578063969030c114610062578063a87430ba1461007e575b600080fd5b610060600480360381019061005b9190610800565b6100b2565b005b61007c600480360381019061007791906108ca565b6102ec565b005b61009860048036038101906100939190610939565b6104e8565b6040516100a9959493929190610a03565b60405180910390f35b8173ffffffffffffffffffffffffffffffffffffffff163373ffffffffffffffffffffffffffffffffffffffff16148061013757506000803373ffffffffffffffffffffffffffffffffffffffff1673ffffffffffffffffffffffffffffffffffffffff16815260200190815260200160002060020160009054906101000a900460ff165b610176576040517f08c379a000000000000000000000000000000000000000000000000000000000815260040161016d90610ad6565b60405180910390fd5b60008060008473ffffffffffffffffffffffffffffffffffffffff1673ffffffffffffffffffffffffffffffffffffffff16815260200190815260200160002060030180546101c490610b25565b905014610206576040517f08c379a00000000000000000000000000000000000000000000000000000000081526004016101fd90610ba2565b60405180910390fd5b806000808473ffffffffffffffffffffffffffffffffffffffff1673ffffffffffffffffffffffffffffffffffffffff16815260200190815260200160002060030190816102549190610d6e565b5060016000808473ffffffffffffffffffffffffffffffffffffffff1673ffffffffffffffffffffffffffffffffffffffff16815260200190815260200160002060020160016101000a81548160ff0219169083151502179055507fb9a56ef3335a4b13b2aa51519b56125ab2316b50d587ad80edfce74fe9a4b7d382826040516102e0929190610e4f565b60405180910390a15050565b6000835111610330576040517f08c379a000000000000000000000000000000000000000000000000000000000815260040161032790610ecb565b60405180910390fd5b60008060003373ffffffffffffffffffffffffffffffffffffffff1673ffffffffffffffffffffffffffffffffffffffff16815260200190815260200160002060010154146103b4576040517f08c379a00000000000000000000000000000000000000000000000000000000081526004016103ab90610f37565b60405180910390fd5b6040518060a001604052808481526020018381526020018215158152602001600015158152602001604051806020016040528060008152508152506000803373ffffffffffffffffffffffffffffffffffffffff1673ffffffffffffffffffffffffffffffffffffffff16815260200190815260200160002060008201518160000190816104429190610d6e565b506020820151816001015560408201518160020160006101000a81548160ff02191690831515021790555060608201518160020160016101000a81548160ff02191690831515021790555060808201518160030190816104a29190610d6e565b509050507f2bc44769c662c8389c85d654a18c15abfe91d1bf7e0c0f1e57ad869e2ea7be9a338484846040516104db9493929190610f57565b60405180910390a1505050565b600060205280600052604060002060009150905080600001805461050b90610b25565b80601f016020809104026020016040519081016040528092919081815260200182805461053790610b25565b80156105845780601f1061055957610100808354040283529160200191610584565b820191906000526020600020905b81548152906001019060200180831161056757829003601f168201915b5050505050908060010154908060020160009054906101000a900460ff16908060020160019054906101000a900460ff16908060030180546105c590610b25565b80601f01602080910402602001604051908101604052809291908181526020018280546105f190610b25565b801561063e5780601f106106135761010080835404028352916020019161063e565b820191906000526020600020905b81548152906001019060200180831161062157829003601f168201915b5050505050905085565b6000604051905090565b600080fd5b600080fd5b600073ffffffffffffffffffffffffffffffffffffffff82169050919050565b60006106878261065c565b9050919050565b6106978161067c565b81146106a257600080fd5b50565b6000813590506106b48161068e565b92915050565b600080fd5b600080fd5b6000601f19601f8301169050919050565b7f4e487b7100000000000000000000000000000000000000000000000000000000600052604160045260246000fd5b61070d826106c4565b810181811067ffffffffffffffff8211171561072c5761072b6106d5565b5b80604052505050565b600061073f610648565b905061074b8282610704565b919050565b600067ffffffffffffffff82111561076b5761076a6106d5565b5b610774826106c4565b9050602081019050919050565b82818337600083830152505050565b60006107a361079e84610750565b610735565b9050828152602081018484840111156107bf576107be6106bf565b5b6107ca848285610781565b509392505050565b600082601f8301126107e7576107e66106ba565b5b81356107f7848260208601610790565b91505092915050565b6000806040838503121561081757610816610652565b5b6000610825858286016106a5565b925050602083013567ffffffffffffffff81111561084657610845610657565b5b610852858286016107d2565b9150509250929050565b6000819050919050565b61086f8161085c565b811461087a57600080fd5b50565b60008135905061088c81610866565b92915050565b60008115159050919050565b6108a781610892565b81146108b257600080fd5b50565b6000813590506108c48161089e565b92915050565b6000806000606084860312156108e3576108e2610652565b5b600084013567ffffffffffffffff81111561090157610900610657565b5b61090d868287016107d2565b935050602061091e8682870161087d565b925050604061092f868287016108b5565b9150509250925092565b60006020828403121561094f5761094e610652565b5b600061095d848285016106a5565b91505092915050565b600081519050919050565b600082825260208201905092915050565b60005b838110156109a0578082015181840152602081019050610985565b60008484015250505050565b60006109b782610966565b6109c18185610971565b93506109d1818560208601610982565b6109da816106c4565b840191505092915050565b6109ee8161085c565b82525050565b6109fd81610892565b82525050565b600060a0820190508181036000830152610a1d81886109ac565b9050610a2c60208301876109e5565b610a3960408301866109f4565b610a4660608301856109f4565b8181036080830152610a5881846109ac565b90509695505050505050565b7f596f7520617265206e6f7420617574686f72697a656420746f2076657269667960008201527f2075736572730000000000000000000000000000000000000000000000000000602082015250565b6000610ac0602683610971565b9150610acb82610a64565b604082019050919050565b60006020820190508181036000830152610aef81610ab3565b9050919050565b7f4e487b7100000000000000000000000000000000000000000000000000000000600052602260045260246000fd5b60006002820490506001821680610b3d57607f821691505b602082108103610b5057610b4f610af6565b5b50919050565b7f5573657220697320616c72656164792076657269666965640000000000000000600082015250565b6000610b8c601883610971565b9150610b9782610b56565b602082019050919050565b60006020820190508181036000830152610bbb81610b7f565b9050919050565b60008190508160005260206000209050919050565b60006020601f8301049050919050565b600082821b905092915050565b600060088302610c247fffffffffffffffffffffffffffffffffffffffffffffffffffffffffffffffff82610be7565b610c2e8683610be7565b95508019841693508086168417925050509392505050565b6000819050919050565b6000610c6b610c66610c618461085c565b610c46565b61085c565b9050919050565b6000819050919050565b610c8583610c50565b610c99610c9182610c72565b848454610bf4565b825550505050565b600090565b610cae610ca1565b610cb9818484610c7c565b505050565b5b81811015610cdd57610cd2600082610ca6565b600181019050610cbf565b5050565b601f821115610d2257610cf381610bc2565b610cfc84610bd7565b81016020851015610d0b578190505b610d1f610d1785610bd7565b830182610cbe565b50505b505050565b600082821c905092915050565b6000610d4560001984600802610d27565b1980831691505092915050565b6000610d5e8383610d34565b9150826002028217905092915050565b610d7782610966565b67ffffffffffffffff811115610d9057610d8f6106d5565b5b610d9a8254610b25565b610da5828285610ce1565b600060209050601f831160018114610dd85760008415610dc6578287015190505b610dd08582610d52565b865550610e38565b601f198416610de686610bc2565b60005b82811015610e0e57848901518255600182019150602085019450602081019050610de9565b86831015610e2b5784890151610e27601f891682610d34565b8355505b6001600288020188555050505b505050505050565b610e498161067c565b82525050565b6000604082019050610e646000830185610e40565b8181036020830152610e7681846109ac565b90509392505050565b7f4e616d6520697320726571756972656400000000000000000000000000000000600082015250565b6000610eb5601083610971565b9150610ec082610e7f565b602082019050919050565b60006020820190508181036000830152610ee481610ea8565b9050919050565b7f5573657220616c7265616479207369676e656420757000000000000000000000600082015250565b6000610f21601683610971565b9150610f2c82610eeb565b602082019050919050565b60006020820190508181036000830152610f5081610f14565b9050919050565b6000608082019050610f6c6000830187610e40565b8181036020830152610f7e81866109ac565b9050610f8d60408301856109e5565b610f9a60608301846109f4565b9594505050505056fea2646970667358221220996ab83ba95940f355b4d7b60a196dfd71b0390a9f77b4a1630012cc5e0ec16e64736f6c63430008120033",
					"opcodes": "PUSH1 0x80 PUSH1 0x40 MSTORE CALLVALUE DUP1 ISZERO PUSH2 0x10 JUMPI PUSH1 0x0 DUP1 REVERT JUMPDEST POP PUSH2 0xFD9 DUP1 PUSH2 0x20 PUSH1 0x0 CODECOPY PUSH1 0x0 RETURN INVALID PUSH1 0x80 PUSH1 0x40 MSTORE CALLVALUE DUP1 ISZERO PUSH2 0x10 JUMPI PUSH1 0x0 DUP1 REVERT JUMPDEST POP PUSH1 0x4 CALLDATASIZE LT PUSH2 0x41 JUMPI PUSH1 0x0 CALLDATALOAD PUSH1 0xE0 SHR DUP1 PUSH4 0x641D7A78 EQ PUSH2 0x46 JUMPI DUP1 PUSH4 0x969030C1 EQ PUSH2 0x62 JUMPI DUP1 PUSH4 0xA87430BA EQ PUSH2 0x7E JUMPI JUMPDEST PUSH1 0x0 DUP1 REVERT JUMPDEST PUSH2 0x60 PUSH1 0x4 DUP1 CALLDATASIZE SUB DUP2 ADD SWAP1 PUSH2 0x5B SWAP2 SWAP1 PUSH2 0x800 JUMP JUMPDEST PUSH2 0xB2 JUMP JUMPDEST STOP JUMPDEST PUSH2 0x7C PUSH1 0x4 DUP1 CALLDATASIZE SUB DUP2 ADD SWAP1 PUSH2 0x77 SWAP2 SWAP1 PUSH2 0x8CA JUMP JUMPDEST PUSH2 0x2EC JUMP JUMPDEST STOP JUMPDEST PUSH2 0x98 PUSH1 0x4 DUP1 CALLDATASIZE SUB DUP2 ADD SWAP1 PUSH2 0x93 SWAP2 SWAP1 PUSH2 0x939 JUMP JUMPDEST PUSH2 0x4E8 JUMP JUMPDEST PUSH1 0x40 MLOAD PUSH2 0xA9 SWAP6 SWAP5 SWAP4 SWAP3 SWAP2 SWAP1 PUSH2 0xA03 JUMP JUMPDEST PUSH1 0x40 MLOAD DUP1 SWAP2 SUB SWAP1 RETURN JUMPDEST DUP2 PUSH20 0xFFFFFFFFFFFFFFFFFFFFFFFFFFFFFFFFFFFFFFFF AND CALLER PUSH20 0xFFFFFFFFFFFFFFFFFFFFFFFFFFFFFFFFFFFFFFFF AND EQ DUP1 PUSH2 0x137 JUMPI POP PUSH1 0x0 DUP1 CALLER PUSH20 0xFFFFFFFFFFFFFFFFFFFFFFFFFFFFFFFFFFFFFFFF AND PUSH20 0xFFFFFFFFFFFFFFFFFFFFFFFFFFFFFFFFFFFFFFFF AND DUP2 MSTORE PUSH1 0x20 ADD SWAP1 DUP2 MSTORE PUSH1 0x20 ADD PUSH1 0x0 KECCAK256 PUSH1 0x2 ADD PUSH1 0x0 SWAP1 SLOAD SWAP1 PUSH2 0x100 EXP SWAP1 DIV PUSH1 0xFF AND JUMPDEST PUSH2 0x176 JUMPI PUSH1 0x40 MLOAD PUSH32 0x8C379A000000000000000000000000000000000000000000000000000000000 DUP2 MSTORE PUSH1 0x4 ADD PUSH2 0x16D SWAP1 PUSH2 0xAD6 JUMP JUMPDEST PUSH1 0x40 MLOAD DUP1 SWAP2 SUB SWAP1 REVERT JUMPDEST PUSH1 0x0 DUP1 PUSH1 0x0 DUP5 PUSH20 0xFFFFFFFFFFFFFFFFFFFFFFFFFFFFFFFFFFFFFFFF AND PUSH20 0xFFFFFFFFFFFFFFFFFFFFFFFFFFFFFFFFFFFFFFFF AND DUP2 MSTORE PUSH1 0x20 ADD SWAP1 DUP2 MSTORE PUSH1 0x20 ADD PUSH1 0x0 KECCAK256 PUSH1 0x3 ADD DUP1 SLOAD PUSH2 0x1C4 SWAP1 PUSH2 0xB25 JUMP JUMPDEST SWAP1 POP EQ PUSH2 0x206 JUMPI PUSH1 0x40 MLOAD PUSH32 0x8C379A000000000000000000000000000000000000000000000000000000000 DUP2 MSTORE PUSH1 0x4 ADD PUSH2 0x1FD SWAP1 PUSH2 0xBA2 JUMP JUMPDEST PUSH1 0x40 MLOAD DUP1 SWAP2 SUB SWAP1 REVERT JUMPDEST DUP1 PUSH1 0x0 DUP1 DUP5 PUSH20 0xFFFFFFFFFFFFFFFFFFFFFFFFFFFFFFFFFFFFFFFF AND PUSH20 0xFFFFFFFFFFFFFFFFFFFFFFFFFFFFFFFFFFFFFFFF AND DUP2 MSTORE PUSH1 0x20 ADD SWAP1 DUP2 MSTORE PUSH1 0x20 ADD PUSH1 0x0 KECCAK256 PUSH1 0x3 ADD SWAP1 DUP2 PUSH2 0x254 SWAP2 SWAP1 PUSH2 0xD6E JUMP JUMPDEST POP PUSH1 0x1 PUSH1 0x0 DUP1 DUP5 PUSH20 0xFFFFFFFFFFFFFFFFFFFFFFFFFFFFFFFFFFFFFFFF AND PUSH20 0xFFFFFFFFFFFFFFFFFFFFFFFFFFFFFFFFFFFFFFFF AND DUP2 MSTORE PUSH1 0x20 ADD SWAP1 DUP2 MSTORE PUSH1 0x20 ADD PUSH1 0x0 KECCAK256 PUSH1 0x2 ADD PUSH1 0x1 PUSH2 0x100 EXP DUP2 SLOAD DUP2 PUSH1 0xFF MUL NOT AND SWAP1 DUP4 ISZERO ISZERO MUL OR SWAP1 SSTORE POP PUSH32 0xB9A56EF3335A4B13B2AA51519B56125AB2316B50D587AD80EDFCE74FE9A4B7D3 DUP3 DUP3 PUSH1 0x40 MLOAD PUSH2 0x2E0 SWAP3 SWAP2 SWAP1 PUSH2 0xE4F JUMP JUMPDEST PUSH1 0x40 MLOAD DUP1 SWAP2 SUB SWAP1 LOG1 POP POP JUMP JUMPDEST PUSH1 0x0 DUP4 MLOAD GT PUSH2 0x330 JUMPI PUSH1 0x40 MLOAD PUSH32 0x8C379A000000000000000000000000000000000000000000000000000000000 DUP2 MSTORE PUSH1 0x4 ADD PUSH2 0x327 SWAP1 PUSH2 0xECB JUMP JUMPDEST PUSH1 0x40 MLOAD DUP1 SWAP2 SUB SWAP1 REVERT JUMPDEST PUSH1 0x0 DUP1 PUSH1 0x0 CALLER PUSH20 0xFFFFFFFFFFFFFFFFFFFFFFFFFFFFFFFFFFFFFFFF AND PUSH20 0xFFFFFFFFFFFFFFFFFFFFFFFFFFFFFFFFFFFFFFFF AND DUP2 MSTORE PUSH1 0x20 ADD SWAP1 DUP2 MSTORE PUSH1 0x20 ADD PUSH1 0x0 KECCAK256 PUSH1 0x1 ADD SLOAD EQ PUSH2 0x3B4 JUMPI PUSH1 0x40 MLOAD PUSH32 0x8C379A000000000000000000000000000000000000000000000000000000000 DUP2 MSTORE PUSH1 0x4 ADD PUSH2 0x3AB SWAP1 PUSH2 0xF37 JUMP JUMPDEST PUSH1 0x40 MLOAD DUP1 SWAP2 SUB SWAP1 REVERT JUMPDEST PUSH1 0x40 MLOAD DUP1 PUSH1 0xA0 ADD PUSH1 0x40 MSTORE DUP1 DUP5 DUP2 MSTORE PUSH1 0x20 ADD DUP4 DUP2 MSTORE PUSH1 0x20 ADD DUP3 ISZERO ISZERO DUP2 MSTORE PUSH1 0x20 ADD PUSH1 0x0 ISZERO ISZERO DUP2 MSTORE PUSH1 0x20 ADD PUSH1 0x40 MLOAD DUP1 PUSH1 0x20 ADD PUSH1 0x40 MSTORE DUP1 PUSH1 0x0 DUP2 MSTORE POP DUP2 MSTORE POP PUSH1 0x0 DUP1 CALLER PUSH20 0xFFFFFFFFFFFFFFFFFFFFFFFFFFFFFFFFFFFFFFFF AND PUSH20 0xFFFFFFFFFFFFFFFFFFFFFFFFFFFFFFFFFFFFFFFF AND DUP2 MSTORE PUSH1 0x20 ADD SWAP1 DUP2 MSTORE PUSH1 0x20 ADD PUSH1 0x0 KECCAK256 PUSH1 0x0 DUP3 ADD MLOAD DUP2 PUSH1 0x0 ADD SWAP1 DUP2 PUSH2 0x442 SWAP2 SWAP1 PUSH2 0xD6E JUMP JUMPDEST POP PUSH1 0x20 DUP3 ADD MLOAD DUP2 PUSH1 0x1 ADD SSTORE PUSH1 0x40 DUP3 ADD MLOAD DUP2 PUSH1 0x2 ADD PUSH1 0x0 PUSH2 0x100 EXP DUP2 SLOAD DUP2 PUSH1 0xFF MUL NOT AND SWAP1 DUP4 ISZERO ISZERO MUL OR SWAP1 SSTORE POP PUSH1 0x60 DUP3 ADD MLOAD DUP2 PUSH1 0x2 ADD PUSH1 0x1 PUSH2 0x100 EXP DUP2 SLOAD DUP2 PUSH1 0xFF MUL NOT AND SWAP1 DUP4 ISZERO ISZERO MUL OR SWAP1 SSTORE POP PUSH1 0x80 DUP3 ADD MLOAD DUP2 PUSH1 0x3 ADD SWAP1 DUP2 PUSH2 0x4A2 SWAP2 SWAP1 PUSH2 0xD6E JUMP JUMPDEST POP SWAP1 POP POP PUSH32 0x2BC44769C662C8389C85D654A18C15ABFE91D1BF7E0C0F1E57AD869E2EA7BE9A CALLER DUP5 DUP5 DUP5 PUSH1 0x40 MLOAD PUSH2 0x4DB SWAP5 SWAP4 SWAP3 SWAP2 SWAP1 PUSH2 0xF57 JUMP JUMPDEST PUSH1 0x40 MLOAD DUP1 SWAP2 SUB SWAP1 LOG1 POP POP POP JUMP JUMPDEST PUSH1 0x0 PUSH1 0x20 MSTORE DUP1 PUSH1 0x0 MSTORE PUSH1 0x40 PUSH1 0x0 KECCAK256 PUSH1 0x0 SWAP2 POP SWAP1 POP DUP1 PUSH1 0x0 ADD DUP1 SLOAD PUSH2 0x50B SWAP1 PUSH2 0xB25 JUMP JUMPDEST DUP1 PUSH1 0x1F ADD PUSH1 0x20 DUP1 SWAP2 DIV MUL PUSH1 0x20 ADD PUSH1 0x40 MLOAD SWAP1 DUP2 ADD PUSH1 0x40 MSTORE DUP1 SWAP3 SWAP2 SWAP1 DUP2 DUP2 MSTORE PUSH1 0x20 ADD DUP3 DUP1 SLOAD PUSH2 0x537 SWAP1 PUSH2 0xB25 JUMP JUMPDEST DUP1 ISZERO PUSH2 0x584 JUMPI DUP1 PUSH1 0x1F LT PUSH2 0x559 JUMPI PUSH2 0x100 DUP1 DUP4 SLOAD DIV MUL DUP4 MSTORE SWAP2 PUSH1 0x20 ADD SWAP2 PUSH2 0x584 JUMP JUMPDEST DUP3 ADD SWAP2 SWAP1 PUSH1 0x0 MSTORE PUSH1 0x20 PUSH1 0x0 KECCAK256 SWAP1 JUMPDEST DUP2 SLOAD DUP2 MSTORE SWAP1 PUSH1 0x1 ADD SWAP1 PUSH1 0x20 ADD DUP1 DUP4 GT PUSH2 0x567 JUMPI DUP3 SWAP1 SUB PUSH1 0x1F AND DUP3 ADD SWAP2 JUMPDEST POP POP POP POP POP SWAP1 DUP1 PUSH1 0x1 ADD SLOAD SWAP1 DUP1 PUSH1 0x2 ADD PUSH1 0x0 SWAP1 SLOAD SWAP1 PUSH2 0x100 EXP SWAP1 DIV PUSH1 0xFF AND SWAP1 DUP1 PUSH1 0x2 ADD PUSH1 0x1 SWAP1 SLOAD SWAP1 PUSH2 0x100 EXP SWAP1 DIV PUSH1 0xFF AND SWAP1 DUP1 PUSH1 0x3 ADD DUP1 SLOAD PUSH2 0x5C5 SWAP1 PUSH2 0xB25 JUMP JUMPDEST DUP1 PUSH1 0x1F ADD PUSH1 0x20 DUP1 SWAP2 DIV MUL PUSH1 0x20 ADD PUSH1 0x40 MLOAD SWAP1 DUP2 ADD PUSH1 0x40 MSTORE DUP1 SWAP3 SWAP2 SWAP1 DUP2 DUP2 MSTORE PUSH1 0x20 ADD DUP3 DUP1 SLOAD PUSH2 0x5F1 SWAP1 PUSH2 0xB25 JUMP JUMPDEST DUP1 ISZERO PUSH2 0x63E JUMPI DUP1 PUSH1 0x1F LT PUSH2 0x613 JUMPI PUSH2 0x100 DUP1 DUP4 SLOAD DIV MUL DUP4 MSTORE SWAP2 PUSH1 0x20 ADD SWAP2 PUSH2 0x63E JUMP JUMPDEST DUP3 ADD SWAP2 SWAP1 PUSH1 0x0 MSTORE PUSH1 0x20 PUSH1 0x0 KECCAK256 SWAP1 JUMPDEST DUP2 SLOAD DUP2 MSTORE SWAP1 PUSH1 0x1 ADD SWAP1 PUSH1 0x20 ADD DUP1 DUP4 GT PUSH2 0x621 JUMPI DUP3 SWAP1 SUB PUSH1 0x1F AND DUP3 ADD SWAP2 JUMPDEST POP POP POP POP POP SWAP1 POP DUP6 JUMP JUMPDEST PUSH1 0x0 PUSH1 0x40 MLOAD SWAP1 POP SWAP1 JUMP JUMPDEST PUSH1 0x0 DUP1 REVERT JUMPDEST PUSH1 0x0 DUP1 REVERT JUMPDEST PUSH1 0x0 PUSH20 0xFFFFFFFFFFFFFFFFFFFFFFFFFFFFFFFFFFFFFFFF DUP3 AND SWAP1 POP SWAP2 SWAP1 POP JUMP JUMPDEST PUSH1 0x0 PUSH2 0x687 DUP3 PUSH2 0x65C JUMP JUMPDEST SWAP1 POP SWAP2 SWAP1 POP JUMP JUMPDEST PUSH2 0x697 DUP2 PUSH2 0x67C JUMP JUMPDEST DUP2 EQ PUSH2 0x6A2 JUMPI PUSH1 0x0 DUP1 REVERT JUMPDEST POP JUMP JUMPDEST PUSH1 0x0 DUP2 CALLDATALOAD SWAP1 POP PUSH2 0x6B4 DUP2 PUSH2 0x68E JUMP JUMPDEST SWAP3 SWAP2 POP POP JUMP JUMPDEST PUSH1 0x0 DUP1 REVERT JUMPDEST PUSH1 0x0 DUP1 REVERT JUMPDEST PUSH1 0x0 PUSH1 0x1F NOT PUSH1 0x1F DUP4 ADD AND SWAP1 POP SWAP2 SWAP1 POP JUMP JUMPDEST PUSH32 0x4E487B7100000000000000000000000000000000000000000000000000000000 PUSH1 0x0 MSTORE PUSH1 0x41 PUSH1 0x4 MSTORE PUSH1 0x24 PUSH1 0x0 REVERT JUMPDEST PUSH2 0x70D DUP3 PUSH2 0x6C4 JUMP JUMPDEST DUP2 ADD DUP2 DUP2 LT PUSH8 0xFFFFFFFFFFFFFFFF DUP3 GT OR ISZERO PUSH2 0x72C JUMPI PUSH2 0x72B PUSH2 0x6D5 JUMP JUMPDEST JUMPDEST DUP1 PUSH1 0x40 MSTORE POP POP POP JUMP JUMPDEST PUSH1 0x0 PUSH2 0x73F PUSH2 0x648 JUMP JUMPDEST SWAP1 POP PUSH2 0x74B DUP3 DUP3 PUSH2 0x704 JUMP JUMPDEST SWAP2 SWAP1 POP JUMP JUMPDEST PUSH1 0x0 PUSH8 0xFFFFFFFFFFFFFFFF DUP3 GT ISZERO PUSH2 0x76B JUMPI PUSH2 0x76A PUSH2 0x6D5 JUMP JUMPDEST JUMPDEST PUSH2 0x774 DUP3 PUSH2 0x6C4 JUMP JUMPDEST SWAP1 POP PUSH1 0x20 DUP2 ADD SWAP1 POP SWAP2 SWAP1 POP JUMP JUMPDEST DUP3 DUP2 DUP4 CALLDATACOPY PUSH1 0x0 DUP4 DUP4 ADD MSTORE POP POP POP JUMP JUMPDEST PUSH1 0x0 PUSH2 0x7A3 PUSH2 0x79E DUP5 PUSH2 0x750 JUMP JUMPDEST PUSH2 0x735 JUMP JUMPDEST SWAP1 POP DUP3 DUP2 MSTORE PUSH1 0x20 DUP2 ADD DUP5 DUP5 DUP5 ADD GT ISZERO PUSH2 0x7BF JUMPI PUSH2 0x7BE PUSH2 0x6BF JUMP JUMPDEST JUMPDEST PUSH2 0x7CA DUP5 DUP3 DUP6 PUSH2 0x781 JUMP JUMPDEST POP SWAP4 SWAP3 POP POP POP JUMP JUMPDEST PUSH1 0x0 DUP3 PUSH1 0x1F DUP4 ADD SLT PUSH2 0x7E7 JUMPI PUSH2 0x7E6 PUSH2 0x6BA JUMP JUMPDEST JUMPDEST DUP2 CALLDATALOAD PUSH2 0x7F7 DUP5 DUP3 PUSH1 0x20 DUP7 ADD PUSH2 0x790 JUMP JUMPDEST SWAP2 POP POP SWAP3 SWAP2 POP POP JUMP JUMPDEST PUSH1 0x0 DUP1 PUSH1 0x40 DUP4 DUP6 SUB SLT ISZERO PUSH2 0x817 JUMPI PUSH2 0x816 PUSH2 0x652 JUMP JUMPDEST JUMPDEST PUSH1 0x0 PUSH2 0x825 DUP6 DUP3 DUP7 ADD PUSH2 0x6A5 JUMP JUMPDEST SWAP3 POP POP PUSH1 0x20 DUP4 ADD CALLDATALOAD PUSH8 0xFFFFFFFFFFFFFFFF DUP2 GT ISZERO PUSH2 0x846 JUMPI PUSH2 0x845 PUSH2 0x657 JUMP JUMPDEST JUMPDEST PUSH2 0x852 DUP6 DUP3 DUP7 ADD PUSH2 0x7D2 JUMP JUMPDEST SWAP2 POP POP SWAP3 POP SWAP3 SWAP1 POP JUMP JUMPDEST PUSH1 0x0 DUP2 SWAP1 POP SWAP2 SWAP1 POP JUMP JUMPDEST PUSH2 0x86F DUP2 PUSH2 0x85C JUMP JUMPDEST DUP2 EQ PUSH2 0x87A JUMPI PUSH1 0x0 DUP1 REVERT JUMPDEST POP JUMP JUMPDEST PUSH1 0x0 DUP2 CALLDATALOAD SWAP1 POP PUSH2 0x88C DUP2 PUSH2 0x866 JUMP JUMPDEST SWAP3 SWAP2 POP POP JUMP JUMPDEST PUSH1 0x0 DUP2 ISZERO ISZERO SWAP1 POP SWAP2 SWAP1 POP JUMP JUMPDEST PUSH2 0x8A7 DUP2 PUSH2 0x892 JUMP JUMPDEST DUP2 EQ PUSH2 0x8B2 JUMPI PUSH1 0x0 DUP1 REVERT JUMPDEST POP JUMP JUMPDEST PUSH1 0x0 DUP2 CALLDATALOAD SWAP1 POP PUSH2 0x8C4 DUP2 PUSH2 0x89E JUMP JUMPDEST SWAP3 SWAP2 POP POP JUMP JUMPDEST PUSH1 0x0 DUP1 PUSH1 0x0 PUSH1 0x60 DUP5 DUP7 SUB SLT ISZERO PUSH2 0x8E3 JUMPI PUSH2 0x8E2 PUSH2 0x652 JUMP JUMPDEST JUMPDEST PUSH1 0x0 DUP5 ADD CALLDATALOAD PUSH8 0xFFFFFFFFFFFFFFFF DUP2 GT ISZERO PUSH2 0x901 JUMPI PUSH2 0x900 PUSH2 0x657 JUMP JUMPDEST JUMPDEST PUSH2 0x90D DUP7 DUP3 DUP8 ADD PUSH2 0x7D2 JUMP JUMPDEST SWAP4 POP POP PUSH1 0x20 PUSH2 0x91E DUP7 DUP3 DUP8 ADD PUSH2 0x87D JUMP JUMPDEST SWAP3 POP POP PUSH1 0x40 PUSH2 0x92F DUP7 DUP3 DUP8 ADD PUSH2 0x8B5 JUMP JUMPDEST SWAP2 POP POP SWAP3 POP SWAP3 POP SWAP3 JUMP JUMPDEST PUSH1 0x0 PUSH1 0x20 DUP3 DUP5 SUB SLT ISZERO PUSH2 0x94F JUMPI PUSH2 0x94E PUSH2 0x652 JUMP JUMPDEST JUMPDEST PUSH1 0x0 PUSH2 0x95D DUP5 DUP3 DUP6 ADD PUSH2 0x6A5 JUMP JUMPDEST SWAP2 POP POP SWAP3 SWAP2 POP POP JUMP JUMPDEST PUSH1 0x0 DUP2 MLOAD SWAP1 POP SWAP2 SWAP1 POP JUMP JUMPDEST PUSH1 0x0 DUP3 DUP3 MSTORE PUSH1 0x20 DUP3 ADD SWAP1 POP SWAP3 SWAP2 POP POP JUMP JUMPDEST PUSH1 0x0 JUMPDEST DUP4 DUP2 LT ISZERO PUSH2 0x9A0 JUMPI DUP1 DUP3 ADD MLOAD DUP2 DUP5 ADD MSTORE PUSH1 0x20 DUP2 ADD SWAP1 POP PUSH2 0x985 JUMP JUMPDEST PUSH1 0x0 DUP5 DUP5 ADD MSTORE POP POP POP POP JUMP JUMPDEST PUSH1 0x0 PUSH2 0x9B7 DUP3 PUSH2 0x966 JUMP JUMPDEST PUSH2 0x9C1 DUP2 DUP6 PUSH2 0x971 JUMP JUMPDEST SWAP4 POP PUSH2 0x9D1 DUP2 DUP6 PUSH1 0x20 DUP7 ADD PUSH2 0x982 JUMP JUMPDEST PUSH2 0x9DA DUP2 PUSH2 0x6C4 JUMP JUMPDEST DUP5 ADD SWAP2 POP POP SWAP3 SWAP2 POP POP JUMP JUMPDEST PUSH2 0x9EE DUP2 PUSH2 0x85C JUMP JUMPDEST DUP3 MSTORE POP POP JUMP JUMPDEST PUSH2 0x9FD DUP2 PUSH2 0x892 JUMP JUMPDEST DUP3 MSTORE POP POP JUMP JUMPDEST PUSH1 0x0 PUSH1 0xA0 DUP3 ADD SWAP1 POP DUP2 DUP2 SUB PUSH1 0x0 DUP4 ADD MSTORE PUSH2 0xA1D DUP2 DUP9 PUSH2 0x9AC JUMP JUMPDEST SWAP1 POP PUSH2 0xA2C PUSH1 0x20 DUP4 ADD DUP8 PUSH2 0x9E5 JUMP JUMPDEST PUSH2 0xA39 PUSH1 0x40 DUP4 ADD DUP7 PUSH2 0x9F4 JUMP JUMPDEST PUSH2 0xA46 PUSH1 0x60 DUP4 ADD DUP6 PUSH2 0x9F4 JUMP JUMPDEST DUP2 DUP2 SUB PUSH1 0x80 DUP4 ADD MSTORE PUSH2 0xA58 DUP2 DUP5 PUSH2 0x9AC JUMP JUMPDEST SWAP1 POP SWAP7 SWAP6 POP POP POP POP POP POP JUMP JUMPDEST PUSH32 0x596F7520617265206E6F7420617574686F72697A656420746F20766572696679 PUSH1 0x0 DUP3 ADD MSTORE PUSH32 0x2075736572730000000000000000000000000000000000000000000000000000 PUSH1 0x20 DUP3 ADD MSTORE POP JUMP JUMPDEST PUSH1 0x0 PUSH2 0xAC0 PUSH1 0x26 DUP4 PUSH2 0x971 JUMP JUMPDEST SWAP2 POP PUSH2 0xACB DUP3 PUSH2 0xA64 JUMP JUMPDEST PUSH1 0x40 DUP3 ADD SWAP1 POP SWAP2 SWAP1 POP JUMP JUMPDEST PUSH1 0x0 PUSH1 0x20 DUP3 ADD SWAP1 POP DUP2 DUP2 SUB PUSH1 0x0 DUP4 ADD MSTORE PUSH2 0xAEF DUP2 PUSH2 0xAB3 JUMP JUMPDEST SWAP1 POP SWAP2 SWAP1 POP JUMP JUMPDEST PUSH32 0x4E487B7100000000000000000000000000000000000000000000000000000000 PUSH1 0x0 MSTORE PUSH1 0x22 PUSH1 0x4 MSTORE PUSH1 0x24 PUSH1 0x0 REVERT JUMPDEST PUSH1 0x0 PUSH1 0x2 DUP3 DIV SWAP1 POP PUSH1 0x1 DUP3 AND DUP1 PUSH2 0xB3D JUMPI PUSH1 0x7F DUP3 AND SWAP2 POP JUMPDEST PUSH1 0x20 DUP3 LT DUP2 SUB PUSH2 0xB50 JUMPI PUSH2 0xB4F PUSH2 0xAF6 JUMP JUMPDEST JUMPDEST POP SWAP2 SWAP1 POP JUMP JUMPDEST PUSH32 0x5573657220697320616C72656164792076657269666965640000000000000000 PUSH1 0x0 DUP3 ADD MSTORE POP JUMP JUMPDEST PUSH1 0x0 PUSH2 0xB8C PUSH1 0x18 DUP4 PUSH2 0x971 JUMP JUMPDEST SWAP2 POP PUSH2 0xB97 DUP3 PUSH2 0xB56 JUMP JUMPDEST PUSH1 0x20 DUP3 ADD SWAP1 POP SWAP2 SWAP1 POP JUMP JUMPDEST PUSH1 0x0 PUSH1 0x20 DUP3 ADD SWAP1 POP DUP2 DUP2 SUB PUSH1 0x0 DUP4 ADD MSTORE PUSH2 0xBBB DUP2 PUSH2 0xB7F JUMP JUMPDEST SWAP1 POP SWAP2 SWAP1 POP JUMP JUMPDEST PUSH1 0x0 DUP2 SWAP1 POP DUP2 PUSH1 0x0 MSTORE PUSH1 0x20 PUSH1 0x0 KECCAK256 SWAP1 POP SWAP2 SWAP1 POP JUMP JUMPDEST PUSH1 0x0 PUSH1 0x20 PUSH1 0x1F DUP4 ADD DIV SWAP1 POP SWAP2 SWAP1 POP JUMP JUMPDEST PUSH1 0x0 DUP3 DUP3 SHL SWAP1 POP SWAP3 SWAP2 POP POP JUMP JUMPDEST PUSH1 0x0 PUSH1 0x8 DUP4 MUL PUSH2 0xC24 PUSH32 0xFFFFFFFFFFFFFFFFFFFFFFFFFFFFFFFFFFFFFFFFFFFFFFFFFFFFFFFFFFFFFFFF DUP3 PUSH2 0xBE7 JUMP JUMPDEST PUSH2 0xC2E DUP7 DUP4 PUSH2 0xBE7 JUMP JUMPDEST SWAP6 POP DUP1 NOT DUP5 AND SWAP4 POP DUP1 DUP7 AND DUP5 OR SWAP3 POP POP POP SWAP4 SWAP3 POP POP POP JUMP JUMPDEST PUSH1 0x0 DUP2 SWAP1 POP SWAP2 SWAP1 POP JUMP JUMPDEST PUSH1 0x0 PUSH2 0xC6B PUSH2 0xC66 PUSH2 0xC61 DUP5 PUSH2 0x85C JUMP JUMPDEST PUSH2 0xC46 JUMP JUMPDEST PUSH2 0x85C JUMP JUMPDEST SWAP1 POP SWAP2 SWAP1 POP JUMP JUMPDEST PUSH1 0x0 DUP2 SWAP1 POP SWAP2 SWAP1 POP JUMP JUMPDEST PUSH2 0xC85 DUP4 PUSH2 0xC50 JUMP JUMPDEST PUSH2 0xC99 PUSH2 0xC91 DUP3 PUSH2 0xC72 JUMP JUMPDEST DUP5 DUP5 SLOAD PUSH2 0xBF4 JUMP JUMPDEST DUP3 SSTORE POP POP POP POP JUMP JUMPDEST PUSH1 0x0 SWAP1 JUMP JUMPDEST PUSH2 0xCAE PUSH2 0xCA1 JUMP JUMPDEST PUSH2 0xCB9 DUP2 DUP5 DUP5 PUSH2 0xC7C JUMP JUMPDEST POP POP POP JUMP JUMPDEST JUMPDEST DUP2 DUP2 LT ISZERO PUSH2 0xCDD JUMPI PUSH2 0xCD2 PUSH1 0x0 DUP3 PUSH2 0xCA6 JUMP JUMPDEST PUSH1 0x1 DUP2 ADD SWAP1 POP PUSH2 0xCBF JUMP JUMPDEST POP POP JUMP JUMPDEST PUSH1 0x1F DUP3 GT ISZERO PUSH2 0xD22 JUMPI PUSH2 0xCF3 DUP2 PUSH2 0xBC2 JUMP JUMPDEST PUSH2 0xCFC DUP5 PUSH2 0xBD7 JUMP JUMPDEST DUP2 ADD PUSH1 0x20 DUP6 LT ISZERO PUSH2 0xD0B JUMPI DUP2 SWAP1 POP JUMPDEST PUSH2 0xD1F PUSH2 0xD17 DUP6 PUSH2 0xBD7 JUMP JUMPDEST DUP4 ADD DUP3 PUSH2 0xCBE JUMP JUMPDEST POP POP JUMPDEST POP POP POP JUMP JUMPDEST PUSH1 0x0 DUP3 DUP3 SHR SWAP1 POP SWAP3 SWAP2 POP POP JUMP JUMPDEST PUSH1 0x0 PUSH2 0xD45 PUSH1 0x0 NOT DUP5 PUSH1 0x8 MUL PUSH2 0xD27 JUMP JUMPDEST NOT DUP1 DUP4 AND SWAP2 POP POP SWAP3 SWAP2 POP POP JUMP JUMPDEST PUSH1 0x0 PUSH2 0xD5E DUP4 DUP4 PUSH2 0xD34 JUMP JUMPDEST SWAP2 POP DUP3 PUSH1 0x2 MUL DUP3 OR SWAP1 POP SWAP3 SWAP2 POP POP JUMP JUMPDEST PUSH2 0xD77 DUP3 PUSH2 0x966 JUMP JUMPDEST PUSH8 0xFFFFFFFFFFFFFFFF DUP2 GT ISZERO PUSH2 0xD90 JUMPI PUSH2 0xD8F PUSH2 0x6D5 JUMP JUMPDEST JUMPDEST PUSH2 0xD9A DUP3 SLOAD PUSH2 0xB25 JUMP JUMPDEST PUSH2 0xDA5 DUP3 DUP3 DUP6 PUSH2 0xCE1 JUMP JUMPDEST PUSH1 0x0 PUSH1 0x20 SWAP1 POP PUSH1 0x1F DUP4 GT PUSH1 0x1 DUP2 EQ PUSH2 0xDD8 JUMPI PUSH1 0x0 DUP5 ISZERO PUSH2 0xDC6 JUMPI DUP3 DUP8 ADD MLOAD SWAP1 POP JUMPDEST PUSH2 0xDD0 DUP6 DUP3 PUSH2 0xD52 JUMP JUMPDEST DUP7 SSTORE POP PUSH2 0xE38 JUMP JUMPDEST PUSH1 0x1F NOT DUP5 AND PUSH2 0xDE6 DUP7 PUSH2 0xBC2 JUMP JUMPDEST PUSH1 0x0 JUMPDEST DUP3 DUP2 LT ISZERO PUSH2 0xE0E JUMPI DUP5 DUP10 ADD MLOAD DUP3 SSTORE PUSH1 0x1 DUP3 ADD SWAP2 POP PUSH1 0x20 DUP6 ADD SWAP5 POP PUSH1 0x20 DUP2 ADD SWAP1 POP PUSH2 0xDE9 JUMP JUMPDEST DUP7 DUP4 LT ISZERO PUSH2 0xE2B JUMPI DUP5 DUP10 ADD MLOAD PUSH2 0xE27 PUSH1 0x1F DUP10 AND DUP3 PUSH2 0xD34 JUMP JUMPDEST DUP4 SSTORE POP JUMPDEST PUSH1 0x1 PUSH1 0x2 DUP9 MUL ADD DUP9 SSTORE POP POP POP JUMPDEST POP POP POP POP POP POP JUMP JUMPDEST PUSH2 0xE49 DUP2 PUSH2 0x67C JUMP JUMPDEST DUP3 MSTORE POP POP JUMP JUMPDEST PUSH1 0x0 PUSH1 0x40 DUP3 ADD SWAP1 POP PUSH2 0xE64 PUSH1 0x0 DUP4 ADD DUP6 PUSH2 0xE40 JUMP JUMPDEST DUP2 DUP2 SUB PUSH1 0x20 DUP4 ADD MSTORE PUSH2 0xE76 DUP2 DUP5 PUSH2 0x9AC JUMP JUMPDEST SWAP1 POP SWAP4 SWAP3 POP POP POP JUMP JUMPDEST PUSH32 0x4E616D6520697320726571756972656400000000000000000000000000000000 PUSH1 0x0 DUP3 ADD MSTORE POP JUMP JUMPDEST PUSH1 0x0 PUSH2 0xEB5 PUSH1 0x10 DUP4 PUSH2 0x971 JUMP JUMPDEST SWAP2 POP PUSH2 0xEC0 DUP3 PUSH2 0xE7F JUMP JUMPDEST PUSH1 0x20 DUP3 ADD SWAP1 POP SWAP2 SWAP1 POP JUMP JUMPDEST PUSH1 0x0 PUSH1 0x20 DUP3 ADD SWAP1 POP DUP2 DUP2 SUB PUSH1 0x0 DUP4 ADD MSTORE PUSH2 0xEE4 DUP2 PUSH2 0xEA8 JUMP JUMPDEST SWAP1 POP SWAP2 SWAP1 POP JUMP JUMPDEST PUSH32 0x5573657220616C7265616479207369676E656420757000000000000000000000 PUSH1 0x0 DUP3 ADD MSTORE POP JUMP JUMPDEST PUSH1 0x0 PUSH2 0xF21 PUSH1 0x16 DUP4 PUSH2 0x971 JUMP JUMPDEST SWAP2 POP PUSH2 0xF2C DUP3 PUSH2 0xEEB JUMP JUMPDEST PUSH1 0x20 DUP3 ADD SWAP1 POP SWAP2 SWAP1 POP JUMP JUMPDEST PUSH1 0x0 PUSH1 0x20 DUP3 ADD SWAP1 POP DUP2 DUP2 SUB PUSH1 0x0 DUP4 ADD MSTORE PUSH2 0xF50 DUP2 PUSH2 0xF14 JUMP JUMPDEST SWAP1 POP SWAP2 SWAP1 POP JUMP JUMPDEST PUSH1 0x0 PUSH1 0x80 DUP3 ADD SWAP1 POP PUSH2 0xF6C PUSH1 0x0 DUP4 ADD DUP8 PUSH2 0xE40 JUMP JUMPDEST DUP2 DUP2 SUB PUSH1 0x20 DUP4 ADD MSTORE PUSH2 0xF7E DUP2 DUP7 PUSH2 0x9AC JUMP JUMPDEST SWAP1 POP PUSH2 0xF8D PUSH1 0x40 DUP4 ADD DUP6 PUSH2 0x9E5 JUMP JUMPDEST PUSH2 0xF9A PUSH1 0x60 DUP4 ADD DUP5 PUSH2 0x9F4 JUMP JUMPDEST SWAP6 SWAP5 POP POP POP POP POP JUMP INVALID LOG2 PUSH5 0x6970667358 0x22 SLT KECCAK256 SWAP10 PUSH11 0xB83BA95940F355B4D7B60A NOT PUSH14 0xFD71B0390A9F77B4A1630012CC5E 0xE 0xC1 PUSH15 0x64736F6C6343000812003300000000 "
				},
				"gasEstimates": {
					"creation": {
						"codeDepositCost": "811400",
						"executionCost": "844",
						"totalCost": "812244"
					},
					"external": {
						"signUp(string,uint256,bool)": "infinite",
						"users(address)": "infinite",
						"verifyUser(address,string)": "infinite"
					}
				},
				"methodIdentifiers": {
					"signUp(string,uint256,bool)": "969030c1",
					"users(address)": "a87430ba",
					"verifyUser(address,string)": "641d7a78"
				}
			},
			"storageLayout": {
				"storage": [
					{
						"astId": 17,
						"contract": "contracts/UserManager.sol:UserManager",
						"label": "users",
						"offset": 0,
						"slot": "0",
						"type": "t_mapping(t_address,t_struct(User)12_storage)"
					}
				],
				"types": {
					"t_address": {
						"encoding": "inplace",
						"label": "address",
						"numberOfBytes": "20"
					},
					"t_bool": {
						"encoding": "inplace",
						"label": "bool",
						"numberOfBytes": "1"
					},
					"t_mapping(t_address,t_struct(User)12_storage)": {
						"encoding": "mapping",
						"key": "t_address",
						"label": "mapping(address => struct UserManager.User)",
						"numberOfBytes": "32",
						"value": "t_struct(User)12_storage"
					},
					"t_string_storage": {
						"encoding": "bytes",
						"label": "string",
						"numberOfBytes": "32"
					},
					"t_struct(User)12_storage": {
						"encoding": "inplace",
						"label": "struct UserManager.User",
						"members": [
							{
								"astId": 3,
								"contract": "contracts/UserManager.sol:UserManager",
								"label": "name",
								"offset": 0,
								"slot": "0",
								"type": "t_string_storage"
							},
							{
								"astId": 5,
								"contract": "contracts/UserManager.sol:UserManager",
								"label": "location",
								"offset": 0,
								"slot": "1",
								"type": "t_uint256"
							},
							{
								"astId": 7,
								"contract": "contracts/UserManager.sol:UserManager",
								"label": "isDriver",
								"offset": 0,
								"slot": "2",
								"type": "t_bool"
							},
							{
								"astId": 9,
								"contract": "contracts/UserManager.sol:UserManager",
								"label": "isVerified",
								"offset": 1,
								"slot": "2",
								"type": "t_bool"
							},
							{
								"astId": 11,
								"contract": "contracts/UserManager.sol:UserManager",
								"label": "verificationHash",
								"offset": 0,
								"slot": "3",
								"type": "t_string_storage"
							}
						],
						"numberOfBytes": "128"
					},
					"t_uint256": {
						"encoding": "inplace",
						"label": "uint256",
						"numberOfBytes": "32"
					}
				}
			},
			"userdoc": {
				"kind": "user",
				"methods": {},
				"version": 1
			}
		}
	}
}